{
  "contractName": "TheFacesFund",
  "abi": [
    {
      "inputs": [],
      "stateMutability": "nonpayable",
      "type": "constructor"
    },
    {
      "anonymous": false,
      "inputs": [
        {
          "indexed": true,
          "internalType": "address",
          "name": "owner",
          "type": "address"
        },
        {
          "indexed": true,
          "internalType": "address",
          "name": "approved",
          "type": "address"
        },
        {
          "indexed": true,
          "internalType": "uint256",
          "name": "tokenId",
          "type": "uint256"
        }
      ],
      "name": "Approval",
      "type": "event"
    },
    {
      "anonymous": false,
      "inputs": [
        {
          "indexed": true,
          "internalType": "address",
          "name": "owner",
          "type": "address"
        },
        {
          "indexed": true,
          "internalType": "address",
          "name": "operator",
          "type": "address"
        },
        {
          "indexed": false,
          "internalType": "bool",
          "name": "approved",
          "type": "bool"
        }
      ],
      "name": "ApprovalForAll",
      "type": "event"
    },
    {
      "anonymous": false,
      "inputs": [
        {
          "indexed": true,
          "internalType": "address",
          "name": "previousOwner",
          "type": "address"
        },
        {
          "indexed": true,
          "internalType": "address",
          "name": "newOwner",
          "type": "address"
        }
      ],
      "name": "OwnershipTransferred",
      "type": "event"
    },
    {
      "anonymous": false,
      "inputs": [
        {
          "indexed": true,
          "internalType": "address",
          "name": "from",
          "type": "address"
        },
        {
          "indexed": true,
          "internalType": "address",
          "name": "to",
          "type": "address"
        },
        {
          "indexed": true,
          "internalType": "uint256",
          "name": "tokenId",
          "type": "uint256"
        }
      ],
      "name": "Transfer",
      "type": "event"
    },
    {
      "inputs": [],
      "name": "PROVENANCE",
      "outputs": [
        {
          "internalType": "string",
          "name": "",
          "type": "string"
        }
      ],
      "stateMutability": "view",
      "type": "function",
      "constant": true
    },
    {
      "inputs": [
        {
          "internalType": "address",
          "name": "to",
          "type": "address"
        },
        {
          "internalType": "uint256",
          "name": "tokenId",
          "type": "uint256"
        }
      ],
      "name": "approve",
      "outputs": [],
      "stateMutability": "nonpayable",
      "type": "function"
    },
    {
      "inputs": [
        {
          "internalType": "address",
          "name": "owner",
          "type": "address"
        }
      ],
      "name": "balanceOf",
      "outputs": [
        {
          "internalType": "uint256",
          "name": "",
          "type": "uint256"
        }
      ],
      "stateMutability": "view",
      "type": "function",
      "constant": true
    },
    {
      "inputs": [],
      "name": "baseURI",
      "outputs": [
        {
          "internalType": "string",
          "name": "",
          "type": "string"
        }
      ],
      "stateMutability": "view",
      "type": "function",
      "constant": true
    },
    {
      "inputs": [
        {
          "internalType": "uint256",
          "name": "tokenId",
          "type": "uint256"
        }
      ],
      "name": "getApproved",
      "outputs": [
        {
          "internalType": "address",
          "name": "",
          "type": "address"
        }
      ],
      "stateMutability": "view",
      "type": "function",
      "constant": true
    },
    {
      "inputs": [
        {
          "internalType": "address",
          "name": "owner",
          "type": "address"
        },
        {
          "internalType": "address",
          "name": "operator",
          "type": "address"
        }
      ],
      "name": "isApprovedForAll",
      "outputs": [
        {
          "internalType": "bool",
          "name": "",
          "type": "bool"
        }
      ],
      "stateMutability": "view",
      "type": "function",
      "constant": true
    },
    {
      "inputs": [],
      "name": "maxSupply",
      "outputs": [
        {
          "internalType": "uint256",
          "name": "",
          "type": "uint256"
        }
      ],
      "stateMutability": "view",
      "type": "function",
      "constant": true
    },
    {
      "inputs": [],
      "name": "name",
      "outputs": [
        {
          "internalType": "string",
          "name": "",
          "type": "string"
        }
      ],
      "stateMutability": "view",
      "type": "function",
      "constant": true
    },
    {
      "inputs": [],
      "name": "owner",
      "outputs": [
        {
          "internalType": "address",
          "name": "",
          "type": "address"
        }
      ],
      "stateMutability": "view",
      "type": "function",
      "constant": true
    },
    {
      "inputs": [
        {
          "internalType": "uint256",
          "name": "tokenId",
          "type": "uint256"
        }
      ],
      "name": "ownerOf",
      "outputs": [
        {
          "internalType": "address",
          "name": "",
          "type": "address"
        }
      ],
      "stateMutability": "view",
      "type": "function",
      "constant": true
    },
    {
      "inputs": [],
      "name": "payoutAddress",
      "outputs": [
        {
          "internalType": "address",
          "name": "",
          "type": "address"
        }
      ],
      "stateMutability": "view",
      "type": "function",
      "constant": true
    },
    {
      "inputs": [],
      "name": "renounceOwnership",
      "outputs": [],
      "stateMutability": "nonpayable",
      "type": "function"
    },
    {
      "inputs": [
        {
          "internalType": "address",
          "name": "from",
          "type": "address"
        },
        {
          "internalType": "address",
          "name": "to",
          "type": "address"
        },
        {
          "internalType": "uint256",
          "name": "tokenId",
          "type": "uint256"
        }
      ],
      "name": "safeTransferFrom",
      "outputs": [],
      "stateMutability": "nonpayable",
      "type": "function"
    },
    {
      "inputs": [
        {
          "internalType": "address",
          "name": "from",
          "type": "address"
        },
        {
          "internalType": "address",
          "name": "to",
          "type": "address"
        },
        {
          "internalType": "uint256",
          "name": "tokenId",
          "type": "uint256"
        },
        {
          "internalType": "bytes",
          "name": "_data",
          "type": "bytes"
        }
      ],
      "name": "safeTransferFrom",
      "outputs": [],
      "stateMutability": "nonpayable",
      "type": "function"
    },
    {
      "inputs": [
        {
          "internalType": "address",
          "name": "operator",
          "type": "address"
        },
        {
          "internalType": "bool",
          "name": "approved",
          "type": "bool"
        }
      ],
      "name": "setApprovalForAll",
      "outputs": [],
      "stateMutability": "nonpayable",
      "type": "function"
    },
    {
      "inputs": [],
      "name": "symbol",
      "outputs": [
        {
          "internalType": "string",
          "name": "",
          "type": "string"
        }
      ],
      "stateMutability": "view",
      "type": "function",
      "constant": true
    },
    {
      "inputs": [
        {
          "internalType": "uint256",
          "name": "index",
          "type": "uint256"
        }
      ],
      "name": "tokenByIndex",
      "outputs": [
        {
          "internalType": "uint256",
          "name": "",
          "type": "uint256"
        }
      ],
      "stateMutability": "view",
      "type": "function",
      "constant": true
    },
    {
      "inputs": [
        {
          "internalType": "address",
          "name": "owner",
          "type": "address"
        },
        {
          "internalType": "uint256",
          "name": "index",
          "type": "uint256"
        }
      ],
      "name": "tokenOfOwnerByIndex",
      "outputs": [
        {
          "internalType": "uint256",
          "name": "",
          "type": "uint256"
        }
      ],
      "stateMutability": "view",
      "type": "function",
      "constant": true
    },
    {
      "inputs": [
        {
          "internalType": "uint256",
          "name": "tokenId",
          "type": "uint256"
        }
      ],
      "name": "tokenURI",
      "outputs": [
        {
          "internalType": "string",
          "name": "",
          "type": "string"
        }
      ],
      "stateMutability": "view",
      "type": "function",
      "constant": true
    },
    {
      "inputs": [],
      "name": "totalSupply",
      "outputs": [
        {
          "internalType": "uint256",
          "name": "",
          "type": "uint256"
        }
      ],
      "stateMutability": "view",
      "type": "function",
      "constant": true
    },
    {
      "inputs": [
        {
          "internalType": "address",
          "name": "from",
          "type": "address"
        },
        {
          "internalType": "address",
          "name": "to",
          "type": "address"
        },
        {
          "internalType": "uint256",
          "name": "tokenId",
          "type": "uint256"
        }
      ],
      "name": "transferFrom",
      "outputs": [],
      "stateMutability": "nonpayable",
      "type": "function"
    },
    {
      "inputs": [
        {
          "internalType": "address",
          "name": "newOwner",
          "type": "address"
        }
      ],
      "name": "transferOwnership",
      "outputs": [],
      "stateMutability": "nonpayable",
      "type": "function"
    },
    {
      "inputs": [
        {
          "internalType": "uint256",
          "name": "_nbTokens",
          "type": "uint256"
        }
      ],
      "name": "mint",
      "outputs": [],
      "stateMutability": "payable",
      "type": "function",
      "payable": true
    },
    {
      "inputs": [],
      "name": "flipSaleState",
      "outputs": [],
      "stateMutability": "nonpayable",
      "type": "function"
    },
    {
      "inputs": [],
      "name": "saleIsStarted",
      "outputs": [
        {
          "internalType": "bool",
          "name": "",
          "type": "bool"
        }
      ],
      "stateMutability": "view",
      "type": "function",
      "constant": true
    },
    {
      "inputs": [
        {
          "internalType": "string",
          "name": "_URI",
          "type": "string"
        }
      ],
      "name": "setBaseURI",
      "outputs": [],
      "stateMutability": "nonpayable",
      "type": "function"
    },
    {
      "inputs": [
        {
          "internalType": "uint256",
          "name": "_newPrice",
          "type": "uint256"
        }
      ],
      "name": "setPrice",
      "outputs": [],
      "stateMutability": "nonpayable",
      "type": "function"
    },
    {
      "inputs": [],
      "name": "getPrice",
      "outputs": [
        {
          "internalType": "uint256",
          "name": "",
          "type": "uint256"
        }
      ],
      "stateMutability": "view",
      "type": "function",
      "constant": true
    },
    {
      "inputs": [],
      "name": "getReservedLeft",
      "outputs": [
        {
          "internalType": "uint256",
          "name": "",
          "type": "uint256"
        }
      ],
      "stateMutability": "view",
      "type": "function",
      "constant": true
    },
    {
      "inputs": [
        {
          "internalType": "string",
          "name": "provenanceHash",
          "type": "string"
        }
      ],
      "name": "setProvenanceHash",
      "outputs": [],
      "stateMutability": "nonpayable",
      "type": "function"
    },
    {
      "inputs": [
        {
          "internalType": "address",
          "name": "_owner",
          "type": "address"
        }
      ],
      "name": "walletOfOwner",
      "outputs": [
        {
          "internalType": "uint256[]",
          "name": "",
          "type": "uint256[]"
        }
      ],
      "stateMutability": "view",
      "type": "function",
      "constant": true
    },
    {
      "inputs": [
        {
          "internalType": "uint256",
          "name": "_number",
          "type": "uint256"
        },
        {
          "internalType": "address",
          "name": "_receiver",
          "type": "address"
        }
      ],
      "name": "claimReserved",
      "outputs": [],
      "stateMutability": "nonpayable",
      "type": "function"
    },
    {
      "inputs": [],
      "name": "withdraw",
      "outputs": [],
      "stateMutability": "nonpayable",
      "type": "function"
    },
    {
      "inputs": [
        {
          "internalType": "bytes4",
          "name": "interfaceId",
          "type": "bytes4"
        }
      ],
      "name": "supportsInterface",
      "outputs": [
        {
          "internalType": "bool",
          "name": "",
          "type": "bool"
        }
      ],
      "stateMutability": "view",
      "type": "function",
      "constant": true
    }
  ],
  "bytecode": "0x6080604052610bb8600b5566b1a2bc2ec50000600c556080600d5560405180602001604052806000815250600e9080519060200190620000419291906200026f565b506000600f60006101000a81548160ff02191690831515021790555073597fafa3843d613134dd1d1459bced5d1c3ffc9c601160006101000a81548173ffffffffffffffffffffffffffffffffffffffff021916908373ffffffffffffffffffffffffffffffffffffffff160217905550348015620000bf57600080fd5b506040518060400160405280600e81526020017f5468652046616365732046756e640000000000000000000000000000000000008152506040518060400160405280600381526020017f54464600000000000000000000000000000000000000000000000000000000008152508160009080519060200190620001449291906200026f565b5080600190805190602001906200015d9291906200026f565b5050506200018062000174620001a160201b60201c565b620001a960201b60201c565b6000600f60006101000a81548160ff02191690831515021790555062000384565b600033905090565b6000600a60009054906101000a900473ffffffffffffffffffffffffffffffffffffffff16905081600a60006101000a81548173ffffffffffffffffffffffffffffffffffffffff021916908373ffffffffffffffffffffffffffffffffffffffff1602179055508173ffffffffffffffffffffffffffffffffffffffff168173ffffffffffffffffffffffffffffffffffffffff167f8be0079c531659141344cd1fd0a4f28419497f9722a3daafe3b4186f6b6457e060405160405180910390a35050565b8280546200027d906200031f565b90600052602060002090601f016020900481019282620002a15760008555620002ed565b82601f10620002bc57805160ff1916838001178555620002ed565b82800160010185558215620002ed579182015b82811115620002ec578251825591602001919060010190620002cf565b5b509050620002fc919062000300565b5090565b5b808211156200031b57600081600090555060010162000301565b5090565b600060028204905060018216806200033857607f821691505b602082108114156200034f576200034e62000355565b5b50919050565b7f4e487b7100000000000000000000000000000000000000000000000000000000600052602260045260246000fd5b6144cc80620003946000396000f3fe6080604052600436106101f95760003560e01c80636c0360eb1161010d578063a0712d68116100a0578063c87b56dd1161006f578063c87b56dd146106fe578063d5abeb011461073b578063daa023aa14610766578063e985e9c514610791578063f2fde38b146107ce576101f9565b8063a0712d6814610667578063a22cb46514610683578063b0e1d7f3146106ac578063b88d4fde146106d5576101f9565b80638da5cb5b116100dc5780638da5cb5b146105bd57806391b7f5ed146105e857806395d89b411461061157806398d5fdca1461063c576101f9565b80636c0360eb1461051357806370a082311461053e578063715018a61461057b5780638d0aab9614610592576101f9565b806334918dfd116101905780634f6ccce71161015f5780634f6ccce71461041a57806355f804b3146104575780635b8d02d7146104805780636352211e146104ab5780636373a6b1146104e8576101f9565b806334918dfd146103865780633ccfd60b1461039d57806342842e0e146103b4578063438b6300146103dd576101f9565b806310969523116101cc57806310969523146102cc57806318160ddd146102f557806323b872dd146103205780632f745c5914610349576101f9565b806301ffc9a7146101fe57806306fdde031461023b578063081812fc14610266578063095ea7b3146102a3575b600080fd5b34801561020a57600080fd5b5061022560048036038101906102209190612fac565b6107f7565b60405161023291906135e3565b60405180910390f35b34801561024757600080fd5b50610250610809565b60405161025d91906135fe565b60405180910390f35b34801561027257600080fd5b5061028d6004803603810190610288919061304f565b61089b565b60405161029a919061355a565b60405180910390f35b3480156102af57600080fd5b506102ca60048036038101906102c59190612f6c565b610920565b005b3480156102d857600080fd5b506102f360048036038101906102ee9190613006565b610a38565b005b34801561030157600080fd5b5061030a610ace565b6040516103179190613900565b60405180910390f35b34801561032c57600080fd5b5061034760048036038101906103429190612e56565b610adb565b005b34801561035557600080fd5b50610370600480360381019061036b9190612f6c565b610b3b565b60405161037d9190613900565b60405180910390f35b34801561039257600080fd5b5061039b610be0565b005b3480156103a957600080fd5b506103b2610c88565b005b3480156103c057600080fd5b506103db60048036038101906103d69190612e56565b610d6c565b005b3480156103e957600080fd5b5061040460048036038101906103ff9190612de9565b610d8c565b60405161041191906135c1565b60405180910390f35b34801561042657600080fd5b50610441600480360381019061043c919061304f565b610e3a565b60405161044e9190613900565b60405180910390f35b34801561046357600080fd5b5061047e60048036038101906104799190613006565b610eab565b005b34801561048c57600080fd5b50610495610f41565b6040516104a2919061355a565b60405180910390f35b3480156104b757600080fd5b506104d260048036038101906104cd919061304f565b610f67565b6040516104df919061355a565b60405180910390f35b3480156104f457600080fd5b506104fd611019565b60405161050a91906135fe565b60405180910390f35b34801561051f57600080fd5b506105286110a7565b60405161053591906135fe565b60405180910390f35b34801561054a57600080fd5b5061056560048036038101906105609190612de9565b611135565b6040516105729190613900565b60405180910390f35b34801561058757600080fd5b506105906111ed565b005b34801561059e57600080fd5b506105a7611275565b6040516105b491906135e3565b60405180910390f35b3480156105c957600080fd5b506105d261128c565b6040516105df919061355a565b60405180910390f35b3480156105f457600080fd5b5061060f600480360381019061060a919061304f565b6112b6565b005b34801561061d57600080fd5b5061062661133c565b60405161063391906135fe565b60405180910390f35b34801561064857600080fd5b506106516113ce565b60405161065e9190613900565b60405180910390f35b610681600480360381019061067c919061304f565b6113d8565b005b34801561068f57600080fd5b506106aa60048036038101906106a59190612f2c565b61155b565b005b3480156106b857600080fd5b506106d360048036038101906106ce919061307c565b6116dc565b005b3480156106e157600080fd5b506106fc60048036038101906106f79190612ea9565b6117f6565b005b34801561070a57600080fd5b506107256004803603810190610720919061304f565b611858565b60405161073291906135fe565b60405180910390f35b34801561074757600080fd5b506107506118ff565b60405161075d9190613900565b60405180910390f35b34801561077257600080fd5b5061077b611905565b6040516107889190613900565b60405180910390f35b34801561079d57600080fd5b506107b860048036038101906107b39190612e16565b61190f565b6040516107c591906135e3565b60405180910390f35b3480156107da57600080fd5b506107f560048036038101906107f09190612de9565b6119a3565b005b600061080282611a9b565b9050919050565b60606000805461081890613be9565b80601f016020809104026020016040519081016040528092919081815260200182805461084490613be9565b80156108915780601f1061086657610100808354040283529160200191610891565b820191906000526020600020905b81548152906001019060200180831161087457829003601f168201915b5050505050905090565b60006108a682611b15565b6108e5576040517f08c379a00000000000000000000000000000000000000000000000000000000081526004016108dc90613800565b60405180910390fd5b6004600083815260200190815260200160002060009054906101000a900473ffffffffffffffffffffffffffffffffffffffff169050919050565b600061092b82610f67565b90508073ffffffffffffffffffffffffffffffffffffffff168373ffffffffffffffffffffffffffffffffffffffff16141561099c576040517f08c379a000000000000000000000000000000000000000000000000000000000815260040161099390613880565b60405180910390fd5b8073ffffffffffffffffffffffffffffffffffffffff166109bb611b81565b73ffffffffffffffffffffffffffffffffffffffff1614806109ea57506109e9816109e4611b81565b61190f565b5b610a29576040517f08c379a0000000000000000000000000000000000000000000000000000000008152600401610a2090613780565b60405180910390fd5b610a338383611b89565b505050565b610a40611b81565b73ffffffffffffffffffffffffffffffffffffffff16610a5e61128c565b73ffffffffffffffffffffffffffffffffffffffff1614610ab4576040517f08c379a0000000000000000000000000000000000000000000000000000000008152600401610aab90613820565b60405180910390fd5b80600e9080519060200190610aca929190612bfd565b5050565b6000600880549050905090565b610aec610ae6611b81565b82611c42565b610b2b576040517f08c379a0000000000000000000000000000000000000000000000000000000008152600401610b22906138c0565b60405180910390fd5b610b36838383611d20565b505050565b6000610b4683611135565b8210610b87576040517f08c379a0000000000000000000000000000000000000000000000000000000008152600401610b7e90613620565b60405180910390fd5b600660008473ffffffffffffffffffffffffffffffffffffffff1673ffffffffffffffffffffffffffffffffffffffff168152602001908152602001600020600083815260200190815260200160002054905092915050565b610be8611b81565b73ffffffffffffffffffffffffffffffffffffffff16610c0661128c565b73ffffffffffffffffffffffffffffffffffffffff1614610c5c576040517f08c379a0000000000000000000000000000000000000000000000000000000008152600401610c5390613820565b60405180910390fd5b600f60009054906101000a900460ff1615600f60006101000a81548160ff021916908315150217905550565b610c90611b81565b73ffffffffffffffffffffffffffffffffffffffff16610cae61128c565b73ffffffffffffffffffffffffffffffffffffffff1614610d04576040517f08c379a0000000000000000000000000000000000000000000000000000000008152600401610cfb90613820565b60405180910390fd5b6000479050601160009054906101000a900473ffffffffffffffffffffffffffffffffffffffff1673ffffffffffffffffffffffffffffffffffffffff166108fc829081150290604051600060405180830381858888f19350505050610d6957600080fd5b50565b610d87838383604051806020016040528060008152506117f6565b505050565b60606000610d9983611135565b905060008167ffffffffffffffff811115610db757610db6613db1565b5b604051908082528060200260200182016040528015610de55781602001602082028036833780820191505090505b50905060005b82811015610e2f57610dfd8582610b3b565b828281518110610e1057610e0f613d82565b5b6020026020010181815250508080610e2790613c4c565b915050610deb565b508092505050919050565b6000610e44610ace565b8210610e85576040517f08c379a0000000000000000000000000000000000000000000000000000000008152600401610e7c906138e0565b60405180910390fd5b60088281548110610e9957610e98613d82565b5b90600052602060002001549050919050565b610eb3611b81565b73ffffffffffffffffffffffffffffffffffffffff16610ed161128c565b73ffffffffffffffffffffffffffffffffffffffff1614610f27576040517f08c379a0000000000000000000000000000000000000000000000000000000008152600401610f1e90613820565b60405180910390fd5b8060109080519060200190610f3d929190612bfd565b5050565b601160009054906101000a900473ffffffffffffffffffffffffffffffffffffffff1681565b6000806002600084815260200190815260200160002060009054906101000a900473ffffffffffffffffffffffffffffffffffffffff169050600073ffffffffffffffffffffffffffffffffffffffff168173ffffffffffffffffffffffffffffffffffffffff161415611010576040517f08c379a0000000000000000000000000000000000000000000000000000000008152600401611007906137c0565b60405180910390fd5b80915050919050565b600e805461102690613be9565b80601f016020809104026020016040519081016040528092919081815260200182805461105290613be9565b801561109f5780601f106110745761010080835404028352916020019161109f565b820191906000526020600020905b81548152906001019060200180831161108257829003601f168201915b505050505081565b601080546110b490613be9565b80601f01602080910402602001604051908101604052809291908181526020018280546110e090613be9565b801561112d5780601f106111025761010080835404028352916020019161112d565b820191906000526020600020905b81548152906001019060200180831161111057829003601f168201915b505050505081565b60008073ffffffffffffffffffffffffffffffffffffffff168273ffffffffffffffffffffffffffffffffffffffff1614156111a6576040517f08c379a000000000000000000000000000000000000000000000000000000000815260040161119d906137a0565b60405180910390fd5b600360008373ffffffffffffffffffffffffffffffffffffffff1673ffffffffffffffffffffffffffffffffffffffff168152602001908152602001600020549050919050565b6111f5611b81565b73ffffffffffffffffffffffffffffffffffffffff1661121361128c565b73ffffffffffffffffffffffffffffffffffffffff1614611269576040517f08c379a000000000000000000000000000000000000000000000000000000000815260040161126090613820565b60405180910390fd5b6112736000611f7c565b565b6000600f60009054906101000a900460ff16905090565b6000600a60009054906101000a900473ffffffffffffffffffffffffffffffffffffffff16905090565b6112be611b81565b73ffffffffffffffffffffffffffffffffffffffff166112dc61128c565b73ffffffffffffffffffffffffffffffffffffffff1614611332576040517f08c379a000000000000000000000000000000000000000000000000000000000815260040161132990613820565b60405180910390fd5b80600c8190555050565b60606001805461134b90613be9565b80601f016020809104026020016040519081016040528092919081815260200182805461137790613be9565b80156113c45780601f10611399576101008083540402835291602001916113c4565b820191906000526020600020905b8154815290600101906020018083116113a757829003601f168201915b5050505050905090565b6000600c54905090565b600f60009054906101000a900460ff16611427576040517f08c379a000000000000000000000000000000000000000000000000000000000815260040161141e90613640565b60405180910390fd5b6000611431610ace565b905060158210611476576040517f08c379a000000000000000000000000000000000000000000000000000000000815260040161146d90613740565b60405180910390fd5b600d54600b546114869190613aff565b82826114929190613a1e565b11156114d3576040517f08c379a00000000000000000000000000000000000000000000000000000000081526004016114ca90613680565b60405180910390fd5b34600c54836114e29190613aa5565b1115611523576040517f08c379a000000000000000000000000000000000000000000000000000000000815260040161151a906136e0565b60405180910390fd5b60005b828110156115565761154333828461153e9190613a1e565b612042565b808061154e90613c4c565b915050611526565b505050565b611563611b81565b73ffffffffffffffffffffffffffffffffffffffff168273ffffffffffffffffffffffffffffffffffffffff1614156115d1576040517f08c379a00000000000000000000000000000000000000000000000000000000081526004016115c890613720565b60405180910390fd5b80600560006115de611b81565b73ffffffffffffffffffffffffffffffffffffffff1673ffffffffffffffffffffffffffffffffffffffff16815260200190815260200160002060008473ffffffffffffffffffffffffffffffffffffffff1673ffffffffffffffffffffffffffffffffffffffff16815260200190815260200160002060006101000a81548160ff0219169083151502179055508173ffffffffffffffffffffffffffffffffffffffff1661168b611b81565b73ffffffffffffffffffffffffffffffffffffffff167f17307eab39ab6107e8899845ad3d59bd9653f200f220920489ca2b5937696c31836040516116d091906135e3565b60405180910390a35050565b6116e4611b81565b73ffffffffffffffffffffffffffffffffffffffff1661170261128c565b73ffffffffffffffffffffffffffffffffffffffff1614611758576040517f08c379a000000000000000000000000000000000000000000000000000000000815260040161174f90613820565b60405180910390fd5b600d5482111561179d576040517f08c379a0000000000000000000000000000000000000000000000000000000008152600401611794906138a0565b60405180910390fd5b60006117a7610ace565b905060005b838110156117dc576117c98382846117c49190613a1e565b612042565b80806117d490613c4c565b9150506117ac565b5082600d546117eb9190613aff565b600d81905550505050565b611807611801611b81565b83611c42565b611846576040517f08c379a000000000000000000000000000000000000000000000000000000000815260040161183d906138c0565b60405180910390fd5b61185284848484612060565b50505050565b606061186382611b15565b6118a2576040517f08c379a000000000000000000000000000000000000000000000000000000000815260040161189990613860565b60405180910390fd5b60006118ac6120bc565b905060008151116118cc57604051806020016040528060008152506118f7565b806118d68461214e565b6040516020016118e7929190613536565b6040516020818303038152906040525b915050919050565b600b5481565b6000600d54905090565b6000600560008473ffffffffffffffffffffffffffffffffffffffff1673ffffffffffffffffffffffffffffffffffffffff16815260200190815260200160002060008373ffffffffffffffffffffffffffffffffffffffff1673ffffffffffffffffffffffffffffffffffffffff16815260200190815260200160002060009054906101000a900460ff16905092915050565b6119ab611b81565b73ffffffffffffffffffffffffffffffffffffffff166119c961128c565b73ffffffffffffffffffffffffffffffffffffffff1614611a1f576040517f08c379a0000000000000000000000000000000000000000000000000000000008152600401611a1690613820565b60405180910390fd5b600073ffffffffffffffffffffffffffffffffffffffff168173ffffffffffffffffffffffffffffffffffffffff161415611a8f576040517f08c379a0000000000000000000000000000000000000000000000000000000008152600401611a86906136a0565b60405180910390fd5b611a9881611f7c565b50565b60007f780e9d63000000000000000000000000000000000000000000000000000000007bffffffffffffffffffffffffffffffffffffffffffffffffffffffff1916827bffffffffffffffffffffffffffffffffffffffffffffffffffffffff19161480611b0e5750611b0d826122af565b5b9050919050565b60008073ffffffffffffffffffffffffffffffffffffffff166002600084815260200190815260200160002060009054906101000a900473ffffffffffffffffffffffffffffffffffffffff1673ffffffffffffffffffffffffffffffffffffffff1614159050919050565b600033905090565b816004600083815260200190815260200160002060006101000a81548173ffffffffffffffffffffffffffffffffffffffff021916908373ffffffffffffffffffffffffffffffffffffffff160217905550808273ffffffffffffffffffffffffffffffffffffffff16611bfc83610f67565b73ffffffffffffffffffffffffffffffffffffffff167f8c5be1e5ebec7d5bd14f71427d1e84f3dd0314c0f7b2291e5b200ac8c7c3b92560405160405180910390a45050565b6000611c4d82611b15565b611c8c576040517f08c379a0000000000000000000000000000000000000000000000000000000008152600401611c8390613760565b60405180910390fd5b6000611c9783610f67565b90508073ffffffffffffffffffffffffffffffffffffffff168473ffffffffffffffffffffffffffffffffffffffff161480611d0657508373ffffffffffffffffffffffffffffffffffffffff16611cee8461089b565b73ffffffffffffffffffffffffffffffffffffffff16145b80611d175750611d16818561190f565b5b91505092915050565b8273ffffffffffffffffffffffffffffffffffffffff16611d4082610f67565b73ffffffffffffffffffffffffffffffffffffffff1614611d96576040517f08c379a0000000000000000000000000000000000000000000000000000000008152600401611d8d90613840565b60405180910390fd5b600073ffffffffffffffffffffffffffffffffffffffff168273ffffffffffffffffffffffffffffffffffffffff161415611e06576040517f08c379a0000000000000000000000000000000000000000000000000000000008152600401611dfd90613700565b60405180910390fd5b611e11838383612391565b611e1c600082611b89565b6001600360008573ffffffffffffffffffffffffffffffffffffffff1673ffffffffffffffffffffffffffffffffffffffff1681526020019081526020016000206000828254611e6c9190613aff565b925050819055506001600360008473ffffffffffffffffffffffffffffffffffffffff1673ffffffffffffffffffffffffffffffffffffffff1681526020019081526020016000206000828254611ec39190613a1e565b92505081905550816002600083815260200190815260200160002060006101000a81548173ffffffffffffffffffffffffffffffffffffffff021916908373ffffffffffffffffffffffffffffffffffffffff160217905550808273ffffffffffffffffffffffffffffffffffffffff168473ffffffffffffffffffffffffffffffffffffffff167fddf252ad1be2c89b69c2b068fc378daa952ba7f163c4a11628f55a4df523b3ef60405160405180910390a4505050565b6000600a60009054906101000a900473ffffffffffffffffffffffffffffffffffffffff16905081600a60006101000a81548173ffffffffffffffffffffffffffffffffffffffff021916908373ffffffffffffffffffffffffffffffffffffffff1602179055508173ffffffffffffffffffffffffffffffffffffffff168173ffffffffffffffffffffffffffffffffffffffff167f8be0079c531659141344cd1fd0a4f28419497f9722a3daafe3b4186f6b6457e060405160405180910390a35050565b61205c8282604051806020016040528060008152506123a1565b5050565b61206b848484611d20565b612077848484846123fc565b6120b6576040517f08c379a00000000000000000000000000000000000000000000000000000000081526004016120ad90613660565b60405180910390fd5b50505050565b6060601080546120cb90613be9565b80601f01602080910402602001604051908101604052809291908181526020018280546120f790613be9565b80156121445780601f1061211957610100808354040283529160200191612144565b820191906000526020600020905b81548152906001019060200180831161212757829003601f168201915b5050505050905090565b60606000821415612196576040518060400160405280600181526020017f300000000000000000000000000000000000000000000000000000000000000081525090506122aa565b600082905060005b600082146121c85780806121b190613c4c565b915050600a826121c19190613a74565b915061219e565b60008167ffffffffffffffff8111156121e4576121e3613db1565b5b6040519080825280601f01601f1916602001820160405280156122165781602001600182028036833780820191505090505b5090505b600085146122a35760018261222f9190613aff565b9150600a8561223e9190613c95565b603061224a9190613a1e565b60f81b8183815181106122605761225f613d82565b5b60200101907effffffffffffffffffffffffffffffffffffffffffffffffffffffffffffff1916908160001a905350600a8561229c9190613a74565b945061221a565b8093505050505b919050565b60007f80ac58cd000000000000000000000000000000000000000000000000000000007bffffffffffffffffffffffffffffffffffffffffffffffffffffffff1916827bffffffffffffffffffffffffffffffffffffffffffffffffffffffff1916148061237a57507f5b5e139f000000000000000000000000000000000000000000000000000000007bffffffffffffffffffffffffffffffffffffffffffffffffffffffff1916827bffffffffffffffffffffffffffffffffffffffffffffffffffffffff1916145b8061238a575061238982612593565b5b9050919050565b61239c8383836125fd565b505050565b6123ab8383612711565b6123b860008484846123fc565b6123f7576040517f08c379a00000000000000000000000000000000000000000000000000000000081526004016123ee90613660565b60405180910390fd5b505050565b600061241d8473ffffffffffffffffffffffffffffffffffffffff166128df565b15612586578373ffffffffffffffffffffffffffffffffffffffff1663150b7a02612446611b81565b8786866040518563ffffffff1660e01b81526004016124689493929190613575565b602060405180830381600087803b15801561248257600080fd5b505af19250505080156124b357506040513d601f19601f820116820180604052508101906124b09190612fd9565b60015b612536573d80600081146124e3576040519150601f19603f3d011682016040523d82523d6000602084013e6124e8565b606091505b5060008151141561252e576040517f08c379a000000000000000000000000000000000000000000000000000000000815260040161252590613660565b60405180910390fd5b805181602001fd5b63150b7a0260e01b7bffffffffffffffffffffffffffffffffffffffffffffffffffffffff1916817bffffffffffffffffffffffffffffffffffffffffffffffffffffffff19161491505061258b565b600190505b949350505050565b60007f01ffc9a7000000000000000000000000000000000000000000000000000000007bffffffffffffffffffffffffffffffffffffffffffffffffffffffff1916827bffffffffffffffffffffffffffffffffffffffffffffffffffffffff1916149050919050565b6126088383836128f2565b600073ffffffffffffffffffffffffffffffffffffffff168373ffffffffffffffffffffffffffffffffffffffff16141561264b57612646816128f7565b61268a565b8173ffffffffffffffffffffffffffffffffffffffff168373ffffffffffffffffffffffffffffffffffffffff1614612689576126888382612940565b5b5b600073ffffffffffffffffffffffffffffffffffffffff168273ffffffffffffffffffffffffffffffffffffffff1614156126cd576126c881612aad565b61270c565b8273ffffffffffffffffffffffffffffffffffffffff168273ffffffffffffffffffffffffffffffffffffffff161461270b5761270a8282612b7e565b5b5b505050565b600073ffffffffffffffffffffffffffffffffffffffff168273ffffffffffffffffffffffffffffffffffffffff161415612781576040517f08c379a0000000000000000000000000000000000000000000000000000000008152600401612778906137e0565b60405180910390fd5b61278a81611b15565b156127ca576040517f08c379a00000000000000000000000000000000000000000000000000000000081526004016127c1906136c0565b60405180910390fd5b6127d660008383612391565b6001600360008473ffffffffffffffffffffffffffffffffffffffff1673ffffffffffffffffffffffffffffffffffffffff16815260200190815260200160002060008282546128269190613a1e565b92505081905550816002600083815260200190815260200160002060006101000a81548173ffffffffffffffffffffffffffffffffffffffff021916908373ffffffffffffffffffffffffffffffffffffffff160217905550808273ffffffffffffffffffffffffffffffffffffffff16600073ffffffffffffffffffffffffffffffffffffffff167fddf252ad1be2c89b69c2b068fc378daa952ba7f163c4a11628f55a4df523b3ef60405160405180910390a45050565b600080823b905060008111915050919050565b505050565b6008805490506009600083815260200190815260200160002081905550600881908060018154018082558091505060019003906000526020600020016000909190919091505550565b6000600161294d84611135565b6129579190613aff565b9050600060076000848152602001908152602001600020549050818114612a3c576000600660008673ffffffffffffffffffffffffffffffffffffffff1673ffffffffffffffffffffffffffffffffffffffff168152602001908152602001600020600084815260200190815260200160002054905080600660008773ffffffffffffffffffffffffffffffffffffffff1673ffffffffffffffffffffffffffffffffffffffff168152602001908152602001600020600084815260200190815260200160002081905550816007600083815260200190815260200160002081905550505b6007600084815260200190815260200160002060009055600660008573ffffffffffffffffffffffffffffffffffffffff1673ffffffffffffffffffffffffffffffffffffffff16815260200190815260200160002060008381526020019081526020016000206000905550505050565b60006001600880549050612ac19190613aff565b9050600060096000848152602001908152602001600020549050600060088381548110612af157612af0613d82565b5b906000526020600020015490508060088381548110612b1357612b12613d82565b5b906000526020600020018190555081600960008381526020019081526020016000208190555060096000858152602001908152602001600020600090556008805480612b6257612b61613d53565b5b6001900381819060005260206000200160009055905550505050565b6000612b8983611135565b905081600660008573ffffffffffffffffffffffffffffffffffffffff1673ffffffffffffffffffffffffffffffffffffffff168152602001908152602001600020600083815260200190815260200160002081905550806007600084815260200190815260200160002081905550505050565b828054612c0990613be9565b90600052602060002090601f016020900481019282612c2b5760008555612c72565b82601f10612c4457805160ff1916838001178555612c72565b82800160010185558215612c72579182015b82811115612c71578251825591602001919060010190612c56565b5b509050612c7f9190612c83565b5090565b5b80821115612c9c576000816000905550600101612c84565b5090565b6000612cb3612cae84613940565b61391b565b905082815260208101848484011115612ccf57612cce613de5565b5b612cda848285613ba7565b509392505050565b6000612cf5612cf084613971565b61391b565b905082815260208101848484011115612d1157612d10613de5565b5b612d1c848285613ba7565b509392505050565b600081359050612d338161443a565b92915050565b600081359050612d4881614451565b92915050565b600081359050612d5d81614468565b92915050565b600081519050612d7281614468565b92915050565b600082601f830112612d8d57612d8c613de0565b5b8135612d9d848260208601612ca0565b91505092915050565b600082601f830112612dbb57612dba613de0565b5b8135612dcb848260208601612ce2565b91505092915050565b600081359050612de38161447f565b92915050565b600060208284031215612dff57612dfe613def565b5b6000612e0d84828501612d24565b91505092915050565b60008060408385031215612e2d57612e2c613def565b5b6000612e3b85828601612d24565b9250506020612e4c85828601612d24565b9150509250929050565b600080600060608486031215612e6f57612e6e613def565b5b6000612e7d86828701612d24565b9350506020612e8e86828701612d24565b9250506040612e9f86828701612dd4565b9150509250925092565b60008060008060808587031215612ec357612ec2613def565b5b6000612ed187828801612d24565b9450506020612ee287828801612d24565b9350506040612ef387828801612dd4565b925050606085013567ffffffffffffffff811115612f1457612f13613dea565b5b612f2087828801612d78565b91505092959194509250565b60008060408385031215612f4357612f42613def565b5b6000612f5185828601612d24565b9250506020612f6285828601612d39565b9150509250929050565b60008060408385031215612f8357612f82613def565b5b6000612f9185828601612d24565b9250506020612fa285828601612dd4565b9150509250929050565b600060208284031215612fc257612fc1613def565b5b6000612fd084828501612d4e565b91505092915050565b600060208284031215612fef57612fee613def565b5b6000612ffd84828501612d63565b91505092915050565b60006020828403121561301c5761301b613def565b5b600082013567ffffffffffffffff81111561303a57613039613dea565b5b61304684828501612da6565b91505092915050565b60006020828403121561306557613064613def565b5b600061307384828501612dd4565b91505092915050565b6000806040838503121561309357613092613def565b5b60006130a185828601612dd4565b92505060206130b285828601612d24565b9150509250929050565b60006130c88383613518565b60208301905092915050565b6130dd81613b33565b82525050565b60006130ee826139b2565b6130f881856139e0565b9350613103836139a2565b8060005b8381101561313457815161311b88826130bc565b9750613126836139d3565b925050600181019050613107565b5085935050505092915050565b61314a81613b45565b82525050565b600061315b826139bd565b61316581856139f1565b9350613175818560208601613bb6565b61317e81613df4565b840191505092915050565b6000613194826139c8565b61319e8185613a02565b93506131ae818560208601613bb6565b6131b781613df4565b840191505092915050565b60006131cd826139c8565b6131d78185613a13565b93506131e7818560208601613bb6565b80840191505092915050565b6000613200602b83613a02565b915061320b82613e05565b604082019050919050565b6000613223601a83613a02565b915061322e82613e54565b602082019050919050565b6000613246603283613a02565b915061325182613e7d565b604082019050919050565b6000613269603583613a02565b915061327482613ecc565b604082019050919050565b600061328c602683613a02565b915061329782613f1b565b604082019050919050565b60006132af601c83613a02565b91506132ba82613f6a565b602082019050919050565b60006132d2601983613a02565b91506132dd82613f93565b602082019050919050565b60006132f5602483613a02565b915061330082613fbc565b604082019050919050565b6000613318601983613a02565b91506133238261400b565b602082019050919050565b600061333b602c83613a02565b915061334682614034565b604082019050919050565b600061335e602c83613a02565b915061336982614083565b604082019050919050565b6000613381603883613a02565b915061338c826140d2565b604082019050919050565b60006133a4602a83613a02565b91506133af82614121565b604082019050919050565b60006133c7602983613a02565b91506133d282614170565b604082019050919050565b60006133ea602083613a02565b91506133f5826141bf565b602082019050919050565b600061340d602c83613a02565b9150613418826141e8565b604082019050919050565b6000613430602083613a02565b915061343b82614237565b602082019050919050565b6000613453602983613a02565b915061345e82614260565b604082019050919050565b6000613476602f83613a02565b9150613481826142af565b604082019050919050565b6000613499602183613a02565b91506134a4826142fe565b604082019050919050565b60006134bc602383613a02565b91506134c78261434d565b604082019050919050565b60006134df603183613a02565b91506134ea8261439c565b604082019050919050565b6000613502602c83613a02565b915061350d826143eb565b604082019050919050565b61352181613b9d565b82525050565b61353081613b9d565b82525050565b600061354282856131c2565b915061354e82846131c2565b91508190509392505050565b600060208201905061356f60008301846130d4565b92915050565b600060808201905061358a60008301876130d4565b61359760208301866130d4565b6135a46040830185613527565b81810360608301526135b68184613150565b905095945050505050565b600060208201905081810360008301526135db81846130e3565b905092915050565b60006020820190506135f86000830184613141565b92915050565b600060208201905081810360008301526136188184613189565b905092915050565b60006020820190508181036000830152613639816131f3565b9050919050565b6000602082019050818103600083015261365981613216565b9050919050565b6000602082019050818103600083015261367981613239565b9050919050565b600060208201905081810360008301526136998161325c565b9050919050565b600060208201905081810360008301526136b98161327f565b9050919050565b600060208201905081810360008301526136d9816132a2565b9050919050565b600060208201905081810360008301526136f9816132c5565b9050919050565b60006020820190508181036000830152613719816132e8565b9050919050565b600060208201905081810360008301526137398161330b565b9050919050565b600060208201905081810360008301526137598161332e565b9050919050565b6000602082019050818103600083015261377981613351565b9050919050565b6000602082019050818103600083015261379981613374565b9050919050565b600060208201905081810360008301526137b981613397565b9050919050565b600060208201905081810360008301526137d9816133ba565b9050919050565b600060208201905081810360008301526137f9816133dd565b9050919050565b6000602082019050818103600083015261381981613400565b9050919050565b6000602082019050818103600083015261383981613423565b9050919050565b6000602082019050818103600083015261385981613446565b9050919050565b6000602082019050818103600083015261387981613469565b9050919050565b600060208201905081810360008301526138998161348c565b9050919050565b600060208201905081810360008301526138b9816134af565b9050919050565b600060208201905081810360008301526138d9816134d2565b9050919050565b600060208201905081810360008301526138f9816134f5565b9050919050565b60006020820190506139156000830184613527565b92915050565b6000613925613936565b90506139318282613c1b565b919050565b6000604051905090565b600067ffffffffffffffff82111561395b5761395a613db1565b5b61396482613df4565b9050602081019050919050565b600067ffffffffffffffff82111561398c5761398b613db1565b5b61399582613df4565b9050602081019050919050565b6000819050602082019050919050565b600081519050919050565b600081519050919050565b600081519050919050565b6000602082019050919050565b600082825260208201905092915050565b600082825260208201905092915050565b600082825260208201905092915050565b600081905092915050565b6000613a2982613b9d565b9150613a3483613b9d565b9250827fffffffffffffffffffffffffffffffffffffffffffffffffffffffffffffffff03821115613a6957613a68613cc6565b5b828201905092915050565b6000613a7f82613b9d565b9150613a8a83613b9d565b925082613a9a57613a99613cf5565b5b828204905092915050565b6000613ab082613b9d565b9150613abb83613b9d565b9250817fffffffffffffffffffffffffffffffffffffffffffffffffffffffffffffffff0483118215151615613af457613af3613cc6565b5b828202905092915050565b6000613b0a82613b9d565b9150613b1583613b9d565b925082821015613b2857613b27613cc6565b5b828203905092915050565b6000613b3e82613b7d565b9050919050565b60008115159050919050565b60007fffffffff0000000000000000000000000000000000000000000000000000000082169050919050565b600073ffffffffffffffffffffffffffffffffffffffff82169050919050565b6000819050919050565b82818337600083830152505050565b60005b83811015613bd4578082015181840152602081019050613bb9565b83811115613be3576000848401525b50505050565b60006002820490506001821680613c0157607f821691505b60208210811415613c1557613c14613d24565b5b50919050565b613c2482613df4565b810181811067ffffffffffffffff82111715613c4357613c42613db1565b5b80604052505050565b6000613c5782613b9d565b91507fffffffffffffffffffffffffffffffffffffffffffffffffffffffffffffffff821415613c8a57613c89613cc6565b5b600182019050919050565b6000613ca082613b9d565b9150613cab83613b9d565b925082613cbb57613cba613cf5565b5b828206905092915050565b7f4e487b7100000000000000000000000000000000000000000000000000000000600052601160045260246000fd5b7f4e487b7100000000000000000000000000000000000000000000000000000000600052601260045260246000fd5b7f4e487b7100000000000000000000000000000000000000000000000000000000600052602260045260246000fd5b7f4e487b7100000000000000000000000000000000000000000000000000000000600052603160045260246000fd5b7f4e487b7100000000000000000000000000000000000000000000000000000000600052603260045260246000fd5b7f4e487b7100000000000000000000000000000000000000000000000000000000600052604160045260246000fd5b600080fd5b600080fd5b600080fd5b600080fd5b6000601f19601f8301169050919050565b7f455243373231456e756d657261626c653a206f776e657220696e646578206f7560008201527f74206f6620626f756e6473000000000000000000000000000000000000000000602082015250565b7f53616c6520686173206e6f74206265656e20737461727465642e000000000000600082015250565b7f4552433732313a207472616e7366657220746f206e6f6e20455243373231526560008201527f63656976657220696d706c656d656e7465720000000000000000000000000000602082015250565b7f4e6f7420656e6f75676820546f6b656e732072656d61696e20666f722074726160008201527f6e73616374696f6e20746f20636f6d706c6574652e0000000000000000000000602082015250565b7f4f776e61626c653a206e6577206f776e657220697320746865207a65726f206160008201527f6464726573730000000000000000000000000000000000000000000000000000602082015250565b7f4552433732313a20746f6b656e20616c7265616479206d696e74656400000000600082015250565b7f496e73756666696369656e7420616d6f756e742073656e742100000000000000600082015250565b7f4552433732313a207472616e7366657220746f20746865207a65726f2061646460008201527f7265737300000000000000000000000000000000000000000000000000000000602082015250565b7f4552433732313a20617070726f766520746f2063616c6c657200000000000000600082015250565b7f596f752063616e6e6f74206d696e74206d6f7265207468616e20323020546f6b60008201527f656e73206174206f6e6365210000000000000000000000000000000000000000602082015250565b7f4552433732313a206f70657261746f7220717565727920666f72206e6f6e657860008201527f697374656e7420746f6b656e0000000000000000000000000000000000000000602082015250565b7f4552433732313a20617070726f76652063616c6c6572206973206e6f74206f7760008201527f6e6572206e6f7220617070726f76656420666f7220616c6c0000000000000000602082015250565b7f4552433732313a2062616c616e636520717565727920666f7220746865207a6560008201527f726f206164647265737300000000000000000000000000000000000000000000602082015250565b7f4552433732313a206f776e657220717565727920666f72206e6f6e657869737460008201527f656e7420746f6b656e0000000000000000000000000000000000000000000000602082015250565b7f4552433732313a206d696e7420746f20746865207a65726f2061646472657373600082015250565b7f4552433732313a20617070726f76656420717565727920666f72206e6f6e657860008201527f697374656e7420746f6b656e0000000000000000000000000000000000000000602082015250565b7f4f776e61626c653a2063616c6c6572206973206e6f7420746865206f776e6572600082015250565b7f4552433732313a207472616e73666572206f6620746f6b656e2074686174206960008201527f73206e6f74206f776e0000000000000000000000000000000000000000000000602082015250565b7f4552433732314d657461646174613a2055524920717565727920666f72206e6f60008201527f6e6578697374656e7420746f6b656e0000000000000000000000000000000000602082015250565b7f4552433732313a20617070726f76616c20746f2063757272656e74206f776e6560008201527f7200000000000000000000000000000000000000000000000000000000000000602082015250565b7f5468617420776f756c642065786365656420746865206d61782072657365727660008201527f65642e0000000000000000000000000000000000000000000000000000000000602082015250565b7f4552433732313a207472616e736665722063616c6c6572206973206e6f74206f60008201527f776e6572206e6f7220617070726f766564000000000000000000000000000000602082015250565b7f455243373231456e756d657261626c653a20676c6f62616c20696e646578206f60008201527f7574206f6620626f756e64730000000000000000000000000000000000000000602082015250565b61444381613b33565b811461444e57600080fd5b50565b61445a81613b45565b811461446557600080fd5b50565b61447181613b51565b811461447c57600080fd5b50565b61448881613b9d565b811461449357600080fd5b5056fea2646970667358221220978df623dda4df96886dd789157694eb8b22bc74ed9990352b946d607206f16864736f6c63430008070033",
  "immutableReferences": {},
  "source": "// SPDX-License-Identifier: MIT\npragma solidity ^0.8.0;\n\nimport \"@openzeppelin/contracts/token/ERC721/ERC721.sol\";\nimport \"@openzeppelin/contracts/token/ERC721/extensions/ERC721Enumerable.sol\";\nimport \"@openzeppelin/contracts/utils/math/SafeMath.sol\";\nimport \"@openzeppelin/contracts/access/Ownable.sol\";\n\n// Copied largely from https://etherscan.io/address/0xe785e82358879f061bc3dcac6f0444462d4b5330#code#F1\ncontract TheFacesFund is ERC721, ERC721Enumerable, Ownable {\n\n    using SafeMath for uint256;\n\n    uint256 public maxSupply = 3000;\n    uint256 private _price = 0.05 ether;\n    uint256 private _reserved = 128;\n\n    string public PROVENANCE = \"\";\n\n    bool private _saleIsActive = false;\n    string public baseURI;\n\n    address public payoutAddress = 0x597FAfa3843d613134dd1D1459bceD5d1C3ffC9c;\n\n    constructor() ERC721(\"The Faces Fund\", \"TFF\") {\n        _saleIsActive = false;\n    }\n\n    modifier whenSaleStarted() {\n        require(_saleIsActive, \"Sale has not been started.\");\n        _;\n    }\n\n    function mint(uint256 _nbTokens) external payable whenSaleStarted {\n        uint256 supply = totalSupply();\n        require(_nbTokens < 21, \"You cannot mint more than 20 Tokens at once!\");\n        require(supply + _nbTokens <= maxSupply - _reserved, \"Not enough Tokens remain for transaction to complete.\");\n        require(_nbTokens * _price <= msg.value, \"Insufficient amount sent!\");\n\n        for (uint256 i; i < _nbTokens; i++) {\n            _safeMint(msg.sender, supply + i);\n        }\n    }\n\n    function flipSaleState() external onlyOwner {\n        _saleIsActive = !_saleIsActive;\n    }\n\n    function saleIsStarted() public view returns(bool) {\n        return _saleIsActive;\n    }\n\n    function setBaseURI(string memory _URI) external onlyOwner {\n        baseURI = _URI;\n    }\n\n    function _baseURI() internal view override(ERC721) returns(string memory) {\n        return baseURI;\n    }\n\n    /* \n    Make it possible to change the maximum supply and reserved: for unit testing purposes only and is thus internal.\n    */\n    function setMaxSupplyAndReserved(uint256 _newMaxSupply, uint256 _newReserved) internal onlyOwner {\n        require(_newMaxSupply >= _newReserved, \"The max supply of tokens must exceed the number of reserved tokens.\");\n        maxSupply = _newMaxSupply;\n        _reserved = _newReserved;\n    }\n\n    // Make it possible to change the price: just in case\n    function setPrice(uint256 _newPrice) external onlyOwner {\n        _price = _newPrice;\n    }\n\n    function getPrice() public view returns (uint256){\n        return _price;\n    }\n\n    function getReservedLeft() public view returns (uint256) {\n        return _reserved;\n    }\n\n    // This should be set before sales open.\n    function setProvenanceHash(string memory provenanceHash) public onlyOwner {\n        PROVENANCE = provenanceHash;\n    }\n\n    // Helper to list all the tokens in a wallet\n    function walletOfOwner(address _owner) public view returns(uint256[] memory) {\n        uint256 tokenCount = balanceOf(_owner);\n\n        uint256[] memory tokensId = new uint256[](tokenCount);\n        for(uint256 i; i < tokenCount; i++){\n            tokensId[i] = tokenOfOwnerByIndex(_owner, i);\n        }\n        return tokensId;\n    }\n\n    function claimReserved(uint256 _number, address _receiver) external onlyOwner {\n        require(_number <= _reserved, \"That would exceed the max reserved.\");\n\n        uint256 _tokenId = totalSupply();\n        for (uint256 i; i < _number; i++) {\n            _safeMint(_receiver, _tokenId + i);\n        }\n\n        _reserved = _reserved - _number;\n    }\n\n    function withdraw() public onlyOwner {\n        uint256 _balance = address(this).balance;\n\n        require(payable(payoutAddress).send(_balance));\n    }\n\n    // Necessary for compilation.\n    function _beforeTokenTransfer(address from, address to, uint256 tokenId)\n        internal\n        override(ERC721, ERC721Enumerable)\n    {\n        super._beforeTokenTransfer(from, to, tokenId);\n    }\n\n    // Necessary for compilation.\n    function supportsInterface(bytes4 interfaceId)\n        public\n        view\n        override(ERC721, ERC721Enumerable)\n        returns (bool)\n    {\n        return super.supportsInterface(interfaceId);\n    }\n}",
  "sourcePath": "/Users/andrewzhou/Documents/EthDev/faces-fund/sol/contracts/TheFacesFund.sol",
  "compiler": {
    "name": "solc",
    "version": "0.8.7+commit.e28d00a7.Emscripten.clang"
  },
  "schemaVersion": "3.4.2",
  "updatedAt": "2021-08-29T02:46:56.010Z",
  "networkType": "ethereum",
  "devdoc": {
    "kind": "dev",
    "methods": {
      "approve(address,uint256)": {
        "details": "See {IERC721-approve}."
      },
      "balanceOf(address)": {
        "details": "See {IERC721-balanceOf}."
      },
      "getApproved(uint256)": {
        "details": "See {IERC721-getApproved}."
      },
      "isApprovedForAll(address,address)": {
        "details": "See {IERC721-isApprovedForAll}."
      },
      "name()": {
        "details": "See {IERC721Metadata-name}."
      },
      "owner()": {
        "details": "Returns the address of the current owner."
      },
      "ownerOf(uint256)": {
        "details": "See {IERC721-ownerOf}."
      },
      "renounceOwnership()": {
        "details": "Leaves the contract without owner. It will not be possible to call `onlyOwner` functions anymore. Can only be called by the current owner. NOTE: Renouncing ownership will leave the contract without an owner, thereby removing any functionality that is only available to the owner."
      },
      "safeTransferFrom(address,address,uint256)": {
        "details": "See {IERC721-safeTransferFrom}."
      },
      "safeTransferFrom(address,address,uint256,bytes)": {
        "details": "See {IERC721-safeTransferFrom}."
      },
      "setApprovalForAll(address,bool)": {
        "details": "See {IERC721-setApprovalForAll}."
      },
      "symbol()": {
        "details": "See {IERC721Metadata-symbol}."
      },
      "tokenByIndex(uint256)": {
        "details": "See {IERC721Enumerable-tokenByIndex}."
      },
      "tokenOfOwnerByIndex(address,uint256)": {
        "details": "See {IERC721Enumerable-tokenOfOwnerByIndex}."
      },
      "tokenURI(uint256)": {
        "details": "See {IERC721Metadata-tokenURI}."
      },
      "totalSupply()": {
        "details": "See {IERC721Enumerable-totalSupply}."
      },
      "transferFrom(address,address,uint256)": {
        "details": "See {IERC721-transferFrom}."
      },
      "transferOwnership(address)": {
        "details": "Transfers ownership of the contract to a new account (`newOwner`). Can only be called by the current owner."
      }
    },
    "version": 1
  },
  "userdoc": {
    "kind": "user",
    "methods": {},
    "version": 1
  }
}