{
  "contractName": "TheFacesFund",
  "abi": [
    {
      "inputs": [],
      "stateMutability": "nonpayable",
      "type": "constructor"
    },
    {
      "anonymous": false,
      "inputs": [
        {
          "indexed": true,
          "internalType": "address",
          "name": "owner",
          "type": "address"
        },
        {
          "indexed": true,
          "internalType": "address",
          "name": "approved",
          "type": "address"
        },
        {
          "indexed": true,
          "internalType": "uint256",
          "name": "tokenId",
          "type": "uint256"
        }
      ],
      "name": "Approval",
      "type": "event"
    },
    {
      "anonymous": false,
      "inputs": [
        {
          "indexed": true,
          "internalType": "address",
          "name": "owner",
          "type": "address"
        },
        {
          "indexed": true,
          "internalType": "address",
          "name": "operator",
          "type": "address"
        },
        {
          "indexed": false,
          "internalType": "bool",
          "name": "approved",
          "type": "bool"
        }
      ],
      "name": "ApprovalForAll",
      "type": "event"
    },
    {
      "anonymous": false,
      "inputs": [
        {
          "indexed": true,
          "internalType": "address",
          "name": "previousOwner",
          "type": "address"
        },
        {
          "indexed": true,
          "internalType": "address",
          "name": "newOwner",
          "type": "address"
        }
      ],
      "name": "OwnershipTransferred",
      "type": "event"
    },
    {
      "anonymous": false,
      "inputs": [
        {
          "indexed": true,
          "internalType": "address",
          "name": "from",
          "type": "address"
        },
        {
          "indexed": true,
          "internalType": "address",
          "name": "to",
          "type": "address"
        },
        {
          "indexed": true,
          "internalType": "uint256",
          "name": "tokenId",
          "type": "uint256"
        }
      ],
      "name": "Transfer",
      "type": "event"
    },
    {
      "inputs": [],
      "name": "PROVENANCE",
      "outputs": [
        {
          "internalType": "string",
          "name": "",
          "type": "string"
        }
      ],
      "stateMutability": "view",
      "type": "function",
      "constant": true
    },
    {
      "inputs": [
        {
          "internalType": "address",
          "name": "to",
          "type": "address"
        },
        {
          "internalType": "uint256",
          "name": "tokenId",
          "type": "uint256"
        }
      ],
      "name": "approve",
      "outputs": [],
      "stateMutability": "nonpayable",
      "type": "function"
    },
    {
      "inputs": [
        {
          "internalType": "address",
          "name": "owner",
          "type": "address"
        }
      ],
      "name": "balanceOf",
      "outputs": [
        {
          "internalType": "uint256",
          "name": "",
          "type": "uint256"
        }
      ],
      "stateMutability": "view",
      "type": "function",
      "constant": true
    },
    {
      "inputs": [],
      "name": "baseURI",
      "outputs": [
        {
          "internalType": "string",
          "name": "",
          "type": "string"
        }
      ],
      "stateMutability": "view",
      "type": "function",
      "constant": true
    },
    {
      "inputs": [
        {
          "internalType": "uint256",
          "name": "tokenId",
          "type": "uint256"
        }
      ],
      "name": "getApproved",
      "outputs": [
        {
          "internalType": "address",
          "name": "",
          "type": "address"
        }
      ],
      "stateMutability": "view",
      "type": "function",
      "constant": true
    },
    {
      "inputs": [
        {
          "internalType": "address",
          "name": "owner",
          "type": "address"
        },
        {
          "internalType": "address",
          "name": "operator",
          "type": "address"
        }
      ],
      "name": "isApprovedForAll",
      "outputs": [
        {
          "internalType": "bool",
          "name": "",
          "type": "bool"
        }
      ],
      "stateMutability": "view",
      "type": "function",
      "constant": true
    },
    {
      "inputs": [],
      "name": "maxSupply",
      "outputs": [
        {
          "internalType": "uint256",
          "name": "",
          "type": "uint256"
        }
      ],
      "stateMutability": "view",
      "type": "function",
      "constant": true
    },
    {
      "inputs": [],
      "name": "name",
      "outputs": [
        {
          "internalType": "string",
          "name": "",
          "type": "string"
        }
      ],
      "stateMutability": "view",
      "type": "function",
      "constant": true
    },
    {
      "inputs": [],
      "name": "owner",
      "outputs": [
        {
          "internalType": "address",
          "name": "",
          "type": "address"
        }
      ],
      "stateMutability": "view",
      "type": "function",
      "constant": true
    },
    {
      "inputs": [
        {
          "internalType": "uint256",
          "name": "tokenId",
          "type": "uint256"
        }
      ],
      "name": "ownerOf",
      "outputs": [
        {
          "internalType": "address",
          "name": "",
          "type": "address"
        }
      ],
      "stateMutability": "view",
      "type": "function",
      "constant": true
    },
    {
      "inputs": [],
      "name": "renounceOwnership",
      "outputs": [],
      "stateMutability": "nonpayable",
      "type": "function"
    },
    {
      "inputs": [
        {
          "internalType": "address",
          "name": "from",
          "type": "address"
        },
        {
          "internalType": "address",
          "name": "to",
          "type": "address"
        },
        {
          "internalType": "uint256",
          "name": "tokenId",
          "type": "uint256"
        }
      ],
      "name": "safeTransferFrom",
      "outputs": [],
      "stateMutability": "nonpayable",
      "type": "function"
    },
    {
      "inputs": [
        {
          "internalType": "address",
          "name": "from",
          "type": "address"
        },
        {
          "internalType": "address",
          "name": "to",
          "type": "address"
        },
        {
          "internalType": "uint256",
          "name": "tokenId",
          "type": "uint256"
        },
        {
          "internalType": "bytes",
          "name": "_data",
          "type": "bytes"
        }
      ],
      "name": "safeTransferFrom",
      "outputs": [],
      "stateMutability": "nonpayable",
      "type": "function"
    },
    {
      "inputs": [
        {
          "internalType": "address",
          "name": "operator",
          "type": "address"
        },
        {
          "internalType": "bool",
          "name": "approved",
          "type": "bool"
        }
      ],
      "name": "setApprovalForAll",
      "outputs": [],
      "stateMutability": "nonpayable",
      "type": "function"
    },
    {
      "inputs": [],
      "name": "symbol",
      "outputs": [
        {
          "internalType": "string",
          "name": "",
          "type": "string"
        }
      ],
      "stateMutability": "view",
      "type": "function",
      "constant": true
    },
    {
      "inputs": [
        {
          "internalType": "uint256",
          "name": "index",
          "type": "uint256"
        }
      ],
      "name": "tokenByIndex",
      "outputs": [
        {
          "internalType": "uint256",
          "name": "",
          "type": "uint256"
        }
      ],
      "stateMutability": "view",
      "type": "function",
      "constant": true
    },
    {
      "inputs": [
        {
          "internalType": "address",
          "name": "owner",
          "type": "address"
        },
        {
          "internalType": "uint256",
          "name": "index",
          "type": "uint256"
        }
      ],
      "name": "tokenOfOwnerByIndex",
      "outputs": [
        {
          "internalType": "uint256",
          "name": "",
          "type": "uint256"
        }
      ],
      "stateMutability": "view",
      "type": "function",
      "constant": true
    },
    {
      "inputs": [
        {
          "internalType": "uint256",
          "name": "tokenId",
          "type": "uint256"
        }
      ],
      "name": "tokenURI",
      "outputs": [
        {
          "internalType": "string",
          "name": "",
          "type": "string"
        }
      ],
      "stateMutability": "view",
      "type": "function",
      "constant": true
    },
    {
      "inputs": [],
      "name": "totalSupply",
      "outputs": [
        {
          "internalType": "uint256",
          "name": "",
          "type": "uint256"
        }
      ],
      "stateMutability": "view",
      "type": "function",
      "constant": true
    },
    {
      "inputs": [
        {
          "internalType": "address",
          "name": "from",
          "type": "address"
        },
        {
          "internalType": "address",
          "name": "to",
          "type": "address"
        },
        {
          "internalType": "uint256",
          "name": "tokenId",
          "type": "uint256"
        }
      ],
      "name": "transferFrom",
      "outputs": [],
      "stateMutability": "nonpayable",
      "type": "function"
    },
    {
      "inputs": [
        {
          "internalType": "address",
          "name": "newOwner",
          "type": "address"
        }
      ],
      "name": "transferOwnership",
      "outputs": [],
      "stateMutability": "nonpayable",
      "type": "function"
    },
    {
      "inputs": [
        {
          "internalType": "uint256",
          "name": "_nbTokens",
          "type": "uint256"
        }
      ],
      "name": "mint",
      "outputs": [],
      "stateMutability": "payable",
      "type": "function",
      "payable": true
    },
    {
      "inputs": [],
      "name": "flipSaleState",
      "outputs": [],
      "stateMutability": "nonpayable",
      "type": "function"
    },
    {
      "inputs": [],
      "name": "saleIsStarted",
      "outputs": [
        {
          "internalType": "bool",
          "name": "",
          "type": "bool"
        }
      ],
      "stateMutability": "view",
      "type": "function",
      "constant": true
    },
    {
      "inputs": [
        {
          "internalType": "string",
          "name": "_URI",
          "type": "string"
        }
      ],
      "name": "setBaseURI",
      "outputs": [],
      "stateMutability": "nonpayable",
      "type": "function"
    },
    {
      "inputs": [
        {
          "internalType": "uint256",
          "name": "_newPrice",
          "type": "uint256"
        }
      ],
      "name": "setPrice",
      "outputs": [],
      "stateMutability": "nonpayable",
      "type": "function"
    },
    {
      "inputs": [],
      "name": "getPrice",
      "outputs": [
        {
          "internalType": "uint256",
          "name": "",
          "type": "uint256"
        }
      ],
      "stateMutability": "view",
      "type": "function",
      "constant": true
    },
    {
      "inputs": [],
      "name": "getReservedLeft",
      "outputs": [
        {
          "internalType": "uint256",
          "name": "",
          "type": "uint256"
        }
      ],
      "stateMutability": "view",
      "type": "function",
      "constant": true
    },
    {
      "inputs": [
        {
          "internalType": "string",
          "name": "provenanceHash",
          "type": "string"
        }
      ],
      "name": "setProvenanceHash",
      "outputs": [],
      "stateMutability": "nonpayable",
      "type": "function"
    },
    {
      "inputs": [
        {
          "internalType": "address",
          "name": "_owner",
          "type": "address"
        }
      ],
      "name": "walletOfOwner",
      "outputs": [
        {
          "internalType": "uint256[]",
          "name": "",
          "type": "uint256[]"
        }
      ],
      "stateMutability": "view",
      "type": "function",
      "constant": true
    },
    {
      "inputs": [
        {
          "internalType": "uint256",
          "name": "_number",
          "type": "uint256"
        },
        {
          "internalType": "address",
          "name": "_receiver",
          "type": "address"
        }
      ],
      "name": "claimReserved",
      "outputs": [],
      "stateMutability": "nonpayable",
      "type": "function"
    },
    {
      "inputs": [],
      "name": "withdraw",
      "outputs": [],
      "stateMutability": "nonpayable",
      "type": "function"
    },
    {
      "inputs": [
        {
          "internalType": "bytes4",
          "name": "interfaceId",
          "type": "bytes4"
        }
      ],
      "name": "supportsInterface",
      "outputs": [
        {
          "internalType": "bool",
          "name": "",
          "type": "bool"
        }
      ],
      "stateMutability": "view",
      "type": "function",
      "constant": true
    }
  ],
  "bytecode": "0x6080604052610bb8600b5566b1a2bc2ec50000600c5560c8600d5560405180602001604052806000815250600e9080519060200190620000419291906200021a565b506000600f60006101000a81548160ff0219169083151502179055503480156200006a57600080fd5b506040518060400160405280600e81526020017f5468652046616365732046756e640000000000000000000000000000000000008152506040518060400160405280600381526020017f54464600000000000000000000000000000000000000000000000000000000008152508160009080519060200190620000ef9291906200021a565b508060019080519060200190620001089291906200021a565b5050506200012b6200011f6200014c60201b60201c565b6200015460201b60201c565b6000600f60006101000a81548160ff0219169083151502179055506200032f565b600033905090565b6000600a60009054906101000a900473ffffffffffffffffffffffffffffffffffffffff16905081600a60006101000a81548173ffffffffffffffffffffffffffffffffffffffff021916908373ffffffffffffffffffffffffffffffffffffffff1602179055508173ffffffffffffffffffffffffffffffffffffffff168173ffffffffffffffffffffffffffffffffffffffff167f8be0079c531659141344cd1fd0a4f28419497f9722a3daafe3b4186f6b6457e060405160405180910390a35050565b8280546200022890620002ca565b90600052602060002090601f0160209004810192826200024c576000855562000298565b82601f106200026757805160ff191683800117855562000298565b8280016001018555821562000298579182015b82811115620002975782518255916020019190600101906200027a565b5b509050620002a79190620002ab565b5090565b5b80821115620002c6576000816000905550600101620002ac565b5090565b60006002820490506001821680620002e357607f821691505b60208210811415620002fa57620002f962000300565b5b50919050565b7f4e487b7100000000000000000000000000000000000000000000000000000000600052602260045260246000fd5b614470806200033f6000396000f3fe6080604052600436106101ee5760003560e01c80636c0360eb1161010d578063a0712d68116100a0578063c87b56dd1161006f578063c87b56dd146106c8578063d5abeb0114610705578063daa023aa14610730578063e985e9c51461075b578063f2fde38b14610798576101ee565b8063a0712d6814610631578063a22cb4651461064d578063b0e1d7f314610676578063b88d4fde1461069f576101ee565b80638da5cb5b116100dc5780638da5cb5b1461058757806391b7f5ed146105b257806395d89b41146105db57806398d5fdca14610606576101ee565b80636c0360eb146104dd57806370a0823114610508578063715018a6146105455780638d0aab961461055c576101ee565b806334918dfd116101855780634f6ccce7116101545780634f6ccce71461040f57806355f804b31461044c5780636352211e146104755780636373a6b1146104b2576101ee565b806334918dfd1461037b5780633ccfd60b1461039257806342842e0e146103a9578063438b6300146103d2576101ee565b806310969523116101c157806310969523146102c157806318160ddd146102ea57806323b872dd146103155780632f745c591461033e576101ee565b806301ffc9a7146101f357806306fdde0314610230578063081812fc1461025b578063095ea7b314610298575b600080fd5b3480156101ff57600080fd5b5061021a60048036038101906102159190612f50565b6107c1565b6040516102279190613587565b60405180910390f35b34801561023c57600080fd5b506102456107d3565b60405161025291906135a2565b60405180910390f35b34801561026757600080fd5b50610282600480360381019061027d9190612ff3565b610865565b60405161028f91906134fe565b60405180910390f35b3480156102a457600080fd5b506102bf60048036038101906102ba9190612f10565b6108ea565b005b3480156102cd57600080fd5b506102e860048036038101906102e39190612faa565b610a02565b005b3480156102f657600080fd5b506102ff610a98565b60405161030c91906138a4565b60405180910390f35b34801561032157600080fd5b5061033c60048036038101906103379190612dfa565b610aa5565b005b34801561034a57600080fd5b5061036560048036038101906103609190612f10565b610b05565b60405161037291906138a4565b60405180910390f35b34801561038757600080fd5b50610390610baa565b005b34801561039e57600080fd5b506103a7610c52565b005b3480156103b557600080fd5b506103d060048036038101906103cb9190612dfa565b610d36565b005b3480156103de57600080fd5b506103f960048036038101906103f49190612d8d565b610d56565b6040516104069190613565565b60405180910390f35b34801561041b57600080fd5b5061043660048036038101906104319190612ff3565b610e04565b60405161044391906138a4565b60405180910390f35b34801561045857600080fd5b50610473600480360381019061046e9190612faa565b610e75565b005b34801561048157600080fd5b5061049c60048036038101906104979190612ff3565b610f0b565b6040516104a991906134fe565b60405180910390f35b3480156104be57600080fd5b506104c7610fbd565b6040516104d491906135a2565b60405180910390f35b3480156104e957600080fd5b506104f261104b565b6040516104ff91906135a2565b60405180910390f35b34801561051457600080fd5b5061052f600480360381019061052a9190612d8d565b6110d9565b60405161053c91906138a4565b60405180910390f35b34801561055157600080fd5b5061055a611191565b005b34801561056857600080fd5b50610571611219565b60405161057e9190613587565b60405180910390f35b34801561059357600080fd5b5061059c611230565b6040516105a991906134fe565b60405180910390f35b3480156105be57600080fd5b506105d960048036038101906105d49190612ff3565b61125a565b005b3480156105e757600080fd5b506105f06112e0565b6040516105fd91906135a2565b60405180910390f35b34801561061257600080fd5b5061061b611372565b60405161062891906138a4565b60405180910390f35b61064b60048036038101906106469190612ff3565b61137c565b005b34801561065957600080fd5b50610674600480360381019061066f9190612ed0565b6114ff565b005b34801561068257600080fd5b5061069d60048036038101906106989190613020565b611680565b005b3480156106ab57600080fd5b506106c660048036038101906106c19190612e4d565b61179a565b005b3480156106d457600080fd5b506106ef60048036038101906106ea9190612ff3565b6117fc565b6040516106fc91906135a2565b60405180910390f35b34801561071157600080fd5b5061071a6118a3565b60405161072791906138a4565b60405180910390f35b34801561073c57600080fd5b506107456118a9565b60405161075291906138a4565b60405180910390f35b34801561076757600080fd5b50610782600480360381019061077d9190612dba565b6118b3565b60405161078f9190613587565b60405180910390f35b3480156107a457600080fd5b506107bf60048036038101906107ba9190612d8d565b611947565b005b60006107cc82611a3f565b9050919050565b6060600080546107e290613b8d565b80601f016020809104026020016040519081016040528092919081815260200182805461080e90613b8d565b801561085b5780601f106108305761010080835404028352916020019161085b565b820191906000526020600020905b81548152906001019060200180831161083e57829003601f168201915b5050505050905090565b600061087082611ab9565b6108af576040517f08c379a00000000000000000000000000000000000000000000000000000000081526004016108a6906137a4565b60405180910390fd5b6004600083815260200190815260200160002060009054906101000a900473ffffffffffffffffffffffffffffffffffffffff169050919050565b60006108f582610f0b565b90508073ffffffffffffffffffffffffffffffffffffffff168373ffffffffffffffffffffffffffffffffffffffff161415610966576040517f08c379a000000000000000000000000000000000000000000000000000000000815260040161095d90613824565b60405180910390fd5b8073ffffffffffffffffffffffffffffffffffffffff16610985611b25565b73ffffffffffffffffffffffffffffffffffffffff1614806109b457506109b3816109ae611b25565b6118b3565b5b6109f3576040517f08c379a00000000000000000000000000000000000000000000000000000000081526004016109ea90613724565b60405180910390fd5b6109fd8383611b2d565b505050565b610a0a611b25565b73ffffffffffffffffffffffffffffffffffffffff16610a28611230565b73ffffffffffffffffffffffffffffffffffffffff1614610a7e576040517f08c379a0000000000000000000000000000000000000000000000000000000008152600401610a75906137c4565b60405180910390fd5b80600e9080519060200190610a94929190612ba1565b5050565b6000600880549050905090565b610ab6610ab0611b25565b82611be6565b610af5576040517f08c379a0000000000000000000000000000000000000000000000000000000008152600401610aec90613864565b60405180910390fd5b610b00838383611cc4565b505050565b6000610b10836110d9565b8210610b51576040517f08c379a0000000000000000000000000000000000000000000000000000000008152600401610b48906135c4565b60405180910390fd5b600660008473ffffffffffffffffffffffffffffffffffffffff1673ffffffffffffffffffffffffffffffffffffffff168152602001908152602001600020600083815260200190815260200160002054905092915050565b610bb2611b25565b73ffffffffffffffffffffffffffffffffffffffff16610bd0611230565b73ffffffffffffffffffffffffffffffffffffffff1614610c26576040517f08c379a0000000000000000000000000000000000000000000000000000000008152600401610c1d906137c4565b60405180910390fd5b600f60009054906101000a900460ff1615600f60006101000a81548160ff021916908315150217905550565b610c5a611b25565b73ffffffffffffffffffffffffffffffffffffffff16610c78611230565b73ffffffffffffffffffffffffffffffffffffffff1614610cce576040517f08c379a0000000000000000000000000000000000000000000000000000000008152600401610cc5906137c4565b60405180910390fd5b6000479050601160009054906101000a900473ffffffffffffffffffffffffffffffffffffffff1673ffffffffffffffffffffffffffffffffffffffff166108fc829081150290604051600060405180830381858888f19350505050610d3357600080fd5b50565b610d518383836040518060200160405280600081525061179a565b505050565b60606000610d63836110d9565b905060008167ffffffffffffffff811115610d8157610d80613d55565b5b604051908082528060200260200182016040528015610daf5781602001602082028036833780820191505090505b50905060005b82811015610df957610dc78582610b05565b828281518110610dda57610dd9613d26565b5b6020026020010181815250508080610df190613bf0565b915050610db5565b508092505050919050565b6000610e0e610a98565b8210610e4f576040517f08c379a0000000000000000000000000000000000000000000000000000000008152600401610e4690613884565b60405180910390fd5b60088281548110610e6357610e62613d26565b5b90600052602060002001549050919050565b610e7d611b25565b73ffffffffffffffffffffffffffffffffffffffff16610e9b611230565b73ffffffffffffffffffffffffffffffffffffffff1614610ef1576040517f08c379a0000000000000000000000000000000000000000000000000000000008152600401610ee8906137c4565b60405180910390fd5b8060109080519060200190610f07929190612ba1565b5050565b6000806002600084815260200190815260200160002060009054906101000a900473ffffffffffffffffffffffffffffffffffffffff169050600073ffffffffffffffffffffffffffffffffffffffff168173ffffffffffffffffffffffffffffffffffffffff161415610fb4576040517f08c379a0000000000000000000000000000000000000000000000000000000008152600401610fab90613764565b60405180910390fd5b80915050919050565b600e8054610fca90613b8d565b80601f0160208091040260200160405190810160405280929190818152602001828054610ff690613b8d565b80156110435780601f1061101857610100808354040283529160200191611043565b820191906000526020600020905b81548152906001019060200180831161102657829003601f168201915b505050505081565b6010805461105890613b8d565b80601f016020809104026020016040519081016040528092919081815260200182805461108490613b8d565b80156110d15780601f106110a6576101008083540402835291602001916110d1565b820191906000526020600020905b8154815290600101906020018083116110b457829003601f168201915b505050505081565b60008073ffffffffffffffffffffffffffffffffffffffff168273ffffffffffffffffffffffffffffffffffffffff16141561114a576040517f08c379a000000000000000000000000000000000000000000000000000000000815260040161114190613744565b60405180910390fd5b600360008373ffffffffffffffffffffffffffffffffffffffff1673ffffffffffffffffffffffffffffffffffffffff168152602001908152602001600020549050919050565b611199611b25565b73ffffffffffffffffffffffffffffffffffffffff166111b7611230565b73ffffffffffffffffffffffffffffffffffffffff161461120d576040517f08c379a0000000000000000000000000000000000000000000000000000000008152600401611204906137c4565b60405180910390fd5b6112176000611f20565b565b6000600f60009054906101000a900460ff16905090565b6000600a60009054906101000a900473ffffffffffffffffffffffffffffffffffffffff16905090565b611262611b25565b73ffffffffffffffffffffffffffffffffffffffff16611280611230565b73ffffffffffffffffffffffffffffffffffffffff16146112d6576040517f08c379a00000000000000000000000000000000000000000000000000000000081526004016112cd906137c4565b60405180910390fd5b80600c8190555050565b6060600180546112ef90613b8d565b80601f016020809104026020016040519081016040528092919081815260200182805461131b90613b8d565b80156113685780601f1061133d57610100808354040283529160200191611368565b820191906000526020600020905b81548152906001019060200180831161134b57829003601f168201915b5050505050905090565b6000600c54905090565b600f60009054906101000a900460ff166113cb576040517f08c379a00000000000000000000000000000000000000000000000000000000081526004016113c2906135e4565b60405180910390fd5b60006113d5610a98565b90506015821061141a576040517f08c379a0000000000000000000000000000000000000000000000000000000008152600401611411906136e4565b60405180910390fd5b600d54600b5461142a9190613aa3565b828261143691906139c2565b1115611477576040517f08c379a000000000000000000000000000000000000000000000000000000000815260040161146e90613624565b60405180910390fd5b34600c54836114869190613a49565b11156114c7576040517f08c379a00000000000000000000000000000000000000000000000000000000081526004016114be90613684565b60405180910390fd5b60005b828110156114fa576114e73382846114e291906139c2565b611fe6565b80806114f290613bf0565b9150506114ca565b505050565b611507611b25565b73ffffffffffffffffffffffffffffffffffffffff168273ffffffffffffffffffffffffffffffffffffffff161415611575576040517f08c379a000000000000000000000000000000000000000000000000000000000815260040161156c906136c4565b60405180910390fd5b8060056000611582611b25565b73ffffffffffffffffffffffffffffffffffffffff1673ffffffffffffffffffffffffffffffffffffffff16815260200190815260200160002060008473ffffffffffffffffffffffffffffffffffffffff1673ffffffffffffffffffffffffffffffffffffffff16815260200190815260200160002060006101000a81548160ff0219169083151502179055508173ffffffffffffffffffffffffffffffffffffffff1661162f611b25565b73ffffffffffffffffffffffffffffffffffffffff167f17307eab39ab6107e8899845ad3d59bd9653f200f220920489ca2b5937696c31836040516116749190613587565b60405180910390a35050565b611688611b25565b73ffffffffffffffffffffffffffffffffffffffff166116a6611230565b73ffffffffffffffffffffffffffffffffffffffff16146116fc576040517f08c379a00000000000000000000000000000000000000000000000000000000081526004016116f3906137c4565b60405180910390fd5b600d54821115611741576040517f08c379a000000000000000000000000000000000000000000000000000000000815260040161173890613844565b60405180910390fd5b600061174b610a98565b905060005b838110156117805761176d83828461176891906139c2565b611fe6565b808061177890613bf0565b915050611750565b5082600d5461178f9190613aa3565b600d81905550505050565b6117ab6117a5611b25565b83611be6565b6117ea576040517f08c379a00000000000000000000000000000000000000000000000000000000081526004016117e190613864565b60405180910390fd5b6117f684848484612004565b50505050565b606061180782611ab9565b611846576040517f08c379a000000000000000000000000000000000000000000000000000000000815260040161183d90613804565b60405180910390fd5b6000611850612060565b90506000815111611870576040518060200160405280600081525061189b565b8061187a846120f2565b60405160200161188b9291906134da565b6040516020818303038152906040525b915050919050565b600b5481565b6000600d54905090565b6000600560008473ffffffffffffffffffffffffffffffffffffffff1673ffffffffffffffffffffffffffffffffffffffff16815260200190815260200160002060008373ffffffffffffffffffffffffffffffffffffffff1673ffffffffffffffffffffffffffffffffffffffff16815260200190815260200160002060009054906101000a900460ff16905092915050565b61194f611b25565b73ffffffffffffffffffffffffffffffffffffffff1661196d611230565b73ffffffffffffffffffffffffffffffffffffffff16146119c3576040517f08c379a00000000000000000000000000000000000000000000000000000000081526004016119ba906137c4565b60405180910390fd5b600073ffffffffffffffffffffffffffffffffffffffff168173ffffffffffffffffffffffffffffffffffffffff161415611a33576040517f08c379a0000000000000000000000000000000000000000000000000000000008152600401611a2a90613644565b60405180910390fd5b611a3c81611f20565b50565b60007f780e9d63000000000000000000000000000000000000000000000000000000007bffffffffffffffffffffffffffffffffffffffffffffffffffffffff1916827bffffffffffffffffffffffffffffffffffffffffffffffffffffffff19161480611ab25750611ab182612253565b5b9050919050565b60008073ffffffffffffffffffffffffffffffffffffffff166002600084815260200190815260200160002060009054906101000a900473ffffffffffffffffffffffffffffffffffffffff1673ffffffffffffffffffffffffffffffffffffffff1614159050919050565b600033905090565b816004600083815260200190815260200160002060006101000a81548173ffffffffffffffffffffffffffffffffffffffff021916908373ffffffffffffffffffffffffffffffffffffffff160217905550808273ffffffffffffffffffffffffffffffffffffffff16611ba083610f0b565b73ffffffffffffffffffffffffffffffffffffffff167f8c5be1e5ebec7d5bd14f71427d1e84f3dd0314c0f7b2291e5b200ac8c7c3b92560405160405180910390a45050565b6000611bf182611ab9565b611c30576040517f08c379a0000000000000000000000000000000000000000000000000000000008152600401611c2790613704565b60405180910390fd5b6000611c3b83610f0b565b90508073ffffffffffffffffffffffffffffffffffffffff168473ffffffffffffffffffffffffffffffffffffffff161480611caa57508373ffffffffffffffffffffffffffffffffffffffff16611c9284610865565b73ffffffffffffffffffffffffffffffffffffffff16145b80611cbb5750611cba81856118b3565b5b91505092915050565b8273ffffffffffffffffffffffffffffffffffffffff16611ce482610f0b565b73ffffffffffffffffffffffffffffffffffffffff1614611d3a576040517f08c379a0000000000000000000000000000000000000000000000000000000008152600401611d31906137e4565b60405180910390fd5b600073ffffffffffffffffffffffffffffffffffffffff168273ffffffffffffffffffffffffffffffffffffffff161415611daa576040517f08c379a0000000000000000000000000000000000000000000000000000000008152600401611da1906136a4565b60405180910390fd5b611db5838383612335565b611dc0600082611b2d565b6001600360008573ffffffffffffffffffffffffffffffffffffffff1673ffffffffffffffffffffffffffffffffffffffff1681526020019081526020016000206000828254611e109190613aa3565b925050819055506001600360008473ffffffffffffffffffffffffffffffffffffffff1673ffffffffffffffffffffffffffffffffffffffff1681526020019081526020016000206000828254611e6791906139c2565b92505081905550816002600083815260200190815260200160002060006101000a81548173ffffffffffffffffffffffffffffffffffffffff021916908373ffffffffffffffffffffffffffffffffffffffff160217905550808273ffffffffffffffffffffffffffffffffffffffff168473ffffffffffffffffffffffffffffffffffffffff167fddf252ad1be2c89b69c2b068fc378daa952ba7f163c4a11628f55a4df523b3ef60405160405180910390a4505050565b6000600a60009054906101000a900473ffffffffffffffffffffffffffffffffffffffff16905081600a60006101000a81548173ffffffffffffffffffffffffffffffffffffffff021916908373ffffffffffffffffffffffffffffffffffffffff1602179055508173ffffffffffffffffffffffffffffffffffffffff168173ffffffffffffffffffffffffffffffffffffffff167f8be0079c531659141344cd1fd0a4f28419497f9722a3daafe3b4186f6b6457e060405160405180910390a35050565b612000828260405180602001604052806000815250612345565b5050565b61200f848484611cc4565b61201b848484846123a0565b61205a576040517f08c379a000000000000000000000000000000000000000000000000000000000815260040161205190613604565b60405180910390fd5b50505050565b60606010805461206f90613b8d565b80601f016020809104026020016040519081016040528092919081815260200182805461209b90613b8d565b80156120e85780601f106120bd576101008083540402835291602001916120e8565b820191906000526020600020905b8154815290600101906020018083116120cb57829003601f168201915b5050505050905090565b6060600082141561213a576040518060400160405280600181526020017f3000000000000000000000000000000000000000000000000000000000000000815250905061224e565b600082905060005b6000821461216c57808061215590613bf0565b915050600a826121659190613a18565b9150612142565b60008167ffffffffffffffff81111561218857612187613d55565b5b6040519080825280601f01601f1916602001820160405280156121ba5781602001600182028036833780820191505090505b5090505b60008514612247576001826121d39190613aa3565b9150600a856121e29190613c39565b60306121ee91906139c2565b60f81b81838151811061220457612203613d26565b5b60200101907effffffffffffffffffffffffffffffffffffffffffffffffffffffffffffff1916908160001a905350600a856122409190613a18565b94506121be565b8093505050505b919050565b60007f80ac58cd000000000000000000000000000000000000000000000000000000007bffffffffffffffffffffffffffffffffffffffffffffffffffffffff1916827bffffffffffffffffffffffffffffffffffffffffffffffffffffffff1916148061231e57507f5b5e139f000000000000000000000000000000000000000000000000000000007bffffffffffffffffffffffffffffffffffffffffffffffffffffffff1916827bffffffffffffffffffffffffffffffffffffffffffffffffffffffff1916145b8061232e575061232d82612537565b5b9050919050565b6123408383836125a1565b505050565b61234f83836126b5565b61235c60008484846123a0565b61239b576040517f08c379a000000000000000000000000000000000000000000000000000000000815260040161239290613604565b60405180910390fd5b505050565b60006123c18473ffffffffffffffffffffffffffffffffffffffff16612883565b1561252a578373ffffffffffffffffffffffffffffffffffffffff1663150b7a026123ea611b25565b8786866040518563ffffffff1660e01b815260040161240c9493929190613519565b602060405180830381600087803b15801561242657600080fd5b505af192505050801561245757506040513d601f19601f820116820180604052508101906124549190612f7d565b60015b6124da573d8060008114612487576040519150601f19603f3d011682016040523d82523d6000602084013e61248c565b606091505b506000815114156124d2576040517f08c379a00000000000000000000000000000000000000000000000000000000081526004016124c990613604565b60405180910390fd5b805181602001fd5b63150b7a0260e01b7bffffffffffffffffffffffffffffffffffffffffffffffffffffffff1916817bffffffffffffffffffffffffffffffffffffffffffffffffffffffff19161491505061252f565b600190505b949350505050565b60007f01ffc9a7000000000000000000000000000000000000000000000000000000007bffffffffffffffffffffffffffffffffffffffffffffffffffffffff1916827bffffffffffffffffffffffffffffffffffffffffffffffffffffffff1916149050919050565b6125ac838383612896565b600073ffffffffffffffffffffffffffffffffffffffff168373ffffffffffffffffffffffffffffffffffffffff1614156125ef576125ea8161289b565b61262e565b8173ffffffffffffffffffffffffffffffffffffffff168373ffffffffffffffffffffffffffffffffffffffff161461262d5761262c83826128e4565b5b5b600073ffffffffffffffffffffffffffffffffffffffff168273ffffffffffffffffffffffffffffffffffffffff1614156126715761266c81612a51565b6126b0565b8273ffffffffffffffffffffffffffffffffffffffff168273ffffffffffffffffffffffffffffffffffffffff16146126af576126ae8282612b22565b5b5b505050565b600073ffffffffffffffffffffffffffffffffffffffff168273ffffffffffffffffffffffffffffffffffffffff161415612725576040517f08c379a000000000000000000000000000000000000000000000000000000000815260040161271c90613784565b60405180910390fd5b61272e81611ab9565b1561276e576040517f08c379a000000000000000000000000000000000000000000000000000000000815260040161276590613664565b60405180910390fd5b61277a60008383612335565b6001600360008473ffffffffffffffffffffffffffffffffffffffff1673ffffffffffffffffffffffffffffffffffffffff16815260200190815260200160002060008282546127ca91906139c2565b92505081905550816002600083815260200190815260200160002060006101000a81548173ffffffffffffffffffffffffffffffffffffffff021916908373ffffffffffffffffffffffffffffffffffffffff160217905550808273ffffffffffffffffffffffffffffffffffffffff16600073ffffffffffffffffffffffffffffffffffffffff167fddf252ad1be2c89b69c2b068fc378daa952ba7f163c4a11628f55a4df523b3ef60405160405180910390a45050565b600080823b905060008111915050919050565b505050565b6008805490506009600083815260200190815260200160002081905550600881908060018154018082558091505060019003906000526020600020016000909190919091505550565b600060016128f1846110d9565b6128fb9190613aa3565b90506000600760008481526020019081526020016000205490508181146129e0576000600660008673ffffffffffffffffffffffffffffffffffffffff1673ffffffffffffffffffffffffffffffffffffffff168152602001908152602001600020600084815260200190815260200160002054905080600660008773ffffffffffffffffffffffffffffffffffffffff1673ffffffffffffffffffffffffffffffffffffffff168152602001908152602001600020600084815260200190815260200160002081905550816007600083815260200190815260200160002081905550505b6007600084815260200190815260200160002060009055600660008573ffffffffffffffffffffffffffffffffffffffff1673ffffffffffffffffffffffffffffffffffffffff16815260200190815260200160002060008381526020019081526020016000206000905550505050565b60006001600880549050612a659190613aa3565b9050600060096000848152602001908152602001600020549050600060088381548110612a9557612a94613d26565b5b906000526020600020015490508060088381548110612ab757612ab6613d26565b5b906000526020600020018190555081600960008381526020019081526020016000208190555060096000858152602001908152602001600020600090556008805480612b0657612b05613cf7565b5b6001900381819060005260206000200160009055905550505050565b6000612b2d836110d9565b905081600660008573ffffffffffffffffffffffffffffffffffffffff1673ffffffffffffffffffffffffffffffffffffffff168152602001908152602001600020600083815260200190815260200160002081905550806007600084815260200190815260200160002081905550505050565b828054612bad90613b8d565b90600052602060002090601f016020900481019282612bcf5760008555612c16565b82601f10612be857805160ff1916838001178555612c16565b82800160010185558215612c16579182015b82811115612c15578251825591602001919060010190612bfa565b5b509050612c239190612c27565b5090565b5b80821115612c40576000816000905550600101612c28565b5090565b6000612c57612c52846138e4565b6138bf565b905082815260208101848484011115612c7357612c72613d89565b5b612c7e848285613b4b565b509392505050565b6000612c99612c9484613915565b6138bf565b905082815260208101848484011115612cb557612cb4613d89565b5b612cc0848285613b4b565b509392505050565b600081359050612cd7816143de565b92915050565b600081359050612cec816143f5565b92915050565b600081359050612d018161440c565b92915050565b600081519050612d168161440c565b92915050565b600082601f830112612d3157612d30613d84565b5b8135612d41848260208601612c44565b91505092915050565b600082601f830112612d5f57612d5e613d84565b5b8135612d6f848260208601612c86565b91505092915050565b600081359050612d8781614423565b92915050565b600060208284031215612da357612da2613d93565b5b6000612db184828501612cc8565b91505092915050565b60008060408385031215612dd157612dd0613d93565b5b6000612ddf85828601612cc8565b9250506020612df085828601612cc8565b9150509250929050565b600080600060608486031215612e1357612e12613d93565b5b6000612e2186828701612cc8565b9350506020612e3286828701612cc8565b9250506040612e4386828701612d78565b9150509250925092565b60008060008060808587031215612e6757612e66613d93565b5b6000612e7587828801612cc8565b9450506020612e8687828801612cc8565b9350506040612e9787828801612d78565b925050606085013567ffffffffffffffff811115612eb857612eb7613d8e565b5b612ec487828801612d1c565b91505092959194509250565b60008060408385031215612ee757612ee6613d93565b5b6000612ef585828601612cc8565b9250506020612f0685828601612cdd565b9150509250929050565b60008060408385031215612f2757612f26613d93565b5b6000612f3585828601612cc8565b9250506020612f4685828601612d78565b9150509250929050565b600060208284031215612f6657612f65613d93565b5b6000612f7484828501612cf2565b91505092915050565b600060208284031215612f9357612f92613d93565b5b6000612fa184828501612d07565b91505092915050565b600060208284031215612fc057612fbf613d93565b5b600082013567ffffffffffffffff811115612fde57612fdd613d8e565b5b612fea84828501612d4a565b91505092915050565b60006020828403121561300957613008613d93565b5b600061301784828501612d78565b91505092915050565b6000806040838503121561303757613036613d93565b5b600061304585828601612d78565b925050602061305685828601612cc8565b9150509250929050565b600061306c83836134bc565b60208301905092915050565b61308181613ad7565b82525050565b600061309282613956565b61309c8185613984565b93506130a783613946565b8060005b838110156130d85781516130bf8882613060565b97506130ca83613977565b9250506001810190506130ab565b5085935050505092915050565b6130ee81613ae9565b82525050565b60006130ff82613961565b6131098185613995565b9350613119818560208601613b5a565b61312281613d98565b840191505092915050565b60006131388261396c565b61314281856139a6565b9350613152818560208601613b5a565b61315b81613d98565b840191505092915050565b60006131718261396c565b61317b81856139b7565b935061318b818560208601613b5a565b80840191505092915050565b60006131a4602b836139a6565b91506131af82613da9565b604082019050919050565b60006131c7601a836139a6565b91506131d282613df8565b602082019050919050565b60006131ea6032836139a6565b91506131f582613e21565b604082019050919050565b600061320d6035836139a6565b915061321882613e70565b604082019050919050565b60006132306026836139a6565b915061323b82613ebf565b604082019050919050565b6000613253601c836139a6565b915061325e82613f0e565b602082019050919050565b60006132766019836139a6565b915061328182613f37565b602082019050919050565b60006132996024836139a6565b91506132a482613f60565b604082019050919050565b60006132bc6019836139a6565b91506132c782613faf565b602082019050919050565b60006132df602c836139a6565b91506132ea82613fd8565b604082019050919050565b6000613302602c836139a6565b915061330d82614027565b604082019050919050565b60006133256038836139a6565b915061333082614076565b604082019050919050565b6000613348602a836139a6565b9150613353826140c5565b604082019050919050565b600061336b6029836139a6565b915061337682614114565b604082019050919050565b600061338e6020836139a6565b915061339982614163565b602082019050919050565b60006133b1602c836139a6565b91506133bc8261418c565b604082019050919050565b60006133d46020836139a6565b91506133df826141db565b602082019050919050565b60006133f76029836139a6565b915061340282614204565b604082019050919050565b600061341a602f836139a6565b915061342582614253565b604082019050919050565b600061343d6021836139a6565b9150613448826142a2565b604082019050919050565b60006134606023836139a6565b915061346b826142f1565b604082019050919050565b60006134836031836139a6565b915061348e82614340565b604082019050919050565b60006134a6602c836139a6565b91506134b18261438f565b604082019050919050565b6134c581613b41565b82525050565b6134d481613b41565b82525050565b60006134e68285613166565b91506134f28284613166565b91508190509392505050565b60006020820190506135136000830184613078565b92915050565b600060808201905061352e6000830187613078565b61353b6020830186613078565b61354860408301856134cb565b818103606083015261355a81846130f4565b905095945050505050565b6000602082019050818103600083015261357f8184613087565b905092915050565b600060208201905061359c60008301846130e5565b92915050565b600060208201905081810360008301526135bc818461312d565b905092915050565b600060208201905081810360008301526135dd81613197565b9050919050565b600060208201905081810360008301526135fd816131ba565b9050919050565b6000602082019050818103600083015261361d816131dd565b9050919050565b6000602082019050818103600083015261363d81613200565b9050919050565b6000602082019050818103600083015261365d81613223565b9050919050565b6000602082019050818103600083015261367d81613246565b9050919050565b6000602082019050818103600083015261369d81613269565b9050919050565b600060208201905081810360008301526136bd8161328c565b9050919050565b600060208201905081810360008301526136dd816132af565b9050919050565b600060208201905081810360008301526136fd816132d2565b9050919050565b6000602082019050818103600083015261371d816132f5565b9050919050565b6000602082019050818103600083015261373d81613318565b9050919050565b6000602082019050818103600083015261375d8161333b565b9050919050565b6000602082019050818103600083015261377d8161335e565b9050919050565b6000602082019050818103600083015261379d81613381565b9050919050565b600060208201905081810360008301526137bd816133a4565b9050919050565b600060208201905081810360008301526137dd816133c7565b9050919050565b600060208201905081810360008301526137fd816133ea565b9050919050565b6000602082019050818103600083015261381d8161340d565b9050919050565b6000602082019050818103600083015261383d81613430565b9050919050565b6000602082019050818103600083015261385d81613453565b9050919050565b6000602082019050818103600083015261387d81613476565b9050919050565b6000602082019050818103600083015261389d81613499565b9050919050565b60006020820190506138b960008301846134cb565b92915050565b60006138c96138da565b90506138d58282613bbf565b919050565b6000604051905090565b600067ffffffffffffffff8211156138ff576138fe613d55565b5b61390882613d98565b9050602081019050919050565b600067ffffffffffffffff8211156139305761392f613d55565b5b61393982613d98565b9050602081019050919050565b6000819050602082019050919050565b600081519050919050565b600081519050919050565b600081519050919050565b6000602082019050919050565b600082825260208201905092915050565b600082825260208201905092915050565b600082825260208201905092915050565b600081905092915050565b60006139cd82613b41565b91506139d883613b41565b9250827fffffffffffffffffffffffffffffffffffffffffffffffffffffffffffffffff03821115613a0d57613a0c613c6a565b5b828201905092915050565b6000613a2382613b41565b9150613a2e83613b41565b925082613a3e57613a3d613c99565b5b828204905092915050565b6000613a5482613b41565b9150613a5f83613b41565b9250817fffffffffffffffffffffffffffffffffffffffffffffffffffffffffffffffff0483118215151615613a9857613a97613c6a565b5b828202905092915050565b6000613aae82613b41565b9150613ab983613b41565b925082821015613acc57613acb613c6a565b5b828203905092915050565b6000613ae282613b21565b9050919050565b60008115159050919050565b60007fffffffff0000000000000000000000000000000000000000000000000000000082169050919050565b600073ffffffffffffffffffffffffffffffffffffffff82169050919050565b6000819050919050565b82818337600083830152505050565b60005b83811015613b78578082015181840152602081019050613b5d565b83811115613b87576000848401525b50505050565b60006002820490506001821680613ba557607f821691505b60208210811415613bb957613bb8613cc8565b5b50919050565b613bc882613d98565b810181811067ffffffffffffffff82111715613be757613be6613d55565b5b80604052505050565b6000613bfb82613b41565b91507fffffffffffffffffffffffffffffffffffffffffffffffffffffffffffffffff821415613c2e57613c2d613c6a565b5b600182019050919050565b6000613c4482613b41565b9150613c4f83613b41565b925082613c5f57613c5e613c99565b5b828206905092915050565b7f4e487b7100000000000000000000000000000000000000000000000000000000600052601160045260246000fd5b7f4e487b7100000000000000000000000000000000000000000000000000000000600052601260045260246000fd5b7f4e487b7100000000000000000000000000000000000000000000000000000000600052602260045260246000fd5b7f4e487b7100000000000000000000000000000000000000000000000000000000600052603160045260246000fd5b7f4e487b7100000000000000000000000000000000000000000000000000000000600052603260045260246000fd5b7f4e487b7100000000000000000000000000000000000000000000000000000000600052604160045260246000fd5b600080fd5b600080fd5b600080fd5b600080fd5b6000601f19601f8301169050919050565b7f455243373231456e756d657261626c653a206f776e657220696e646578206f7560008201527f74206f6620626f756e6473000000000000000000000000000000000000000000602082015250565b7f53616c6520686173206e6f74206265656e20737461727465642e000000000000600082015250565b7f4552433732313a207472616e7366657220746f206e6f6e20455243373231526560008201527f63656976657220696d706c656d656e7465720000000000000000000000000000602082015250565b7f4e6f7420656e6f75676820546f6b656e732072656d61696e20666f722074726160008201527f6e73616374696f6e20746f20636f6d706c6574652e0000000000000000000000602082015250565b7f4f776e61626c653a206e6577206f776e657220697320746865207a65726f206160008201527f6464726573730000000000000000000000000000000000000000000000000000602082015250565b7f4552433732313a20746f6b656e20616c7265616479206d696e74656400000000600082015250565b7f496e73756666696369656e7420616d6f756e742073656e742100000000000000600082015250565b7f4552433732313a207472616e7366657220746f20746865207a65726f2061646460008201527f7265737300000000000000000000000000000000000000000000000000000000602082015250565b7f4552433732313a20617070726f766520746f2063616c6c657200000000000000600082015250565b7f596f752063616e6e6f74206d696e74206d6f7265207468616e20323020546f6b60008201527f656e73206174206f6e6365210000000000000000000000000000000000000000602082015250565b7f4552433732313a206f70657261746f7220717565727920666f72206e6f6e657860008201527f697374656e7420746f6b656e0000000000000000000000000000000000000000602082015250565b7f4552433732313a20617070726f76652063616c6c6572206973206e6f74206f7760008201527f6e6572206e6f7220617070726f76656420666f7220616c6c0000000000000000602082015250565b7f4552433732313a2062616c616e636520717565727920666f7220746865207a6560008201527f726f206164647265737300000000000000000000000000000000000000000000602082015250565b7f4552433732313a206f776e657220717565727920666f72206e6f6e657869737460008201527f656e7420746f6b656e0000000000000000000000000000000000000000000000602082015250565b7f4552433732313a206d696e7420746f20746865207a65726f2061646472657373600082015250565b7f4552433732313a20617070726f76656420717565727920666f72206e6f6e657860008201527f697374656e7420746f6b656e0000000000000000000000000000000000000000602082015250565b7f4f776e61626c653a2063616c6c6572206973206e6f7420746865206f776e6572600082015250565b7f4552433732313a207472616e73666572206f6620746f6b656e2074686174206960008201527f73206e6f74206f776e0000000000000000000000000000000000000000000000602082015250565b7f4552433732314d657461646174613a2055524920717565727920666f72206e6f60008201527f6e6578697374656e7420746f6b656e0000000000000000000000000000000000602082015250565b7f4552433732313a20617070726f76616c20746f2063757272656e74206f776e6560008201527f7200000000000000000000000000000000000000000000000000000000000000602082015250565b7f5468617420776f756c642065786365656420746865206d61782072657365727660008201527f65642e0000000000000000000000000000000000000000000000000000000000602082015250565b7f4552433732313a207472616e736665722063616c6c6572206973206e6f74206f60008201527f776e6572206e6f7220617070726f766564000000000000000000000000000000602082015250565b7f455243373231456e756d657261626c653a20676c6f62616c20696e646578206f60008201527f7574206f6620626f756e64730000000000000000000000000000000000000000602082015250565b6143e781613ad7565b81146143f257600080fd5b50565b6143fe81613ae9565b811461440957600080fd5b50565b61441581613af5565b811461442057600080fd5b50565b61442c81613b41565b811461443757600080fd5b5056fea26469706673582212203eb2528af46d87011a879eff6a4b2dba146da65aaffd1582bfc45f28226302df64736f6c63430008070033",
  "immutableReferences": {},
  "source": "// SPDX-License-Identifier: MIT\npragma solidity ^0.8.0;\n\nimport \"@openzeppelin/contracts/token/ERC721/ERC721.sol\";\nimport \"@openzeppelin/contracts/token/ERC721/extensions/ERC721Enumerable.sol\";\nimport \"@openzeppelin/contracts/utils/math/SafeMath.sol\";\nimport \"@openzeppelin/contracts/access/Ownable.sol\";\n\n// Copied largely from https://etherscan.io/address/0xe785e82358879f061bc3dcac6f0444462d4b5330#code#F1\ncontract TheFacesFund is ERC721, ERC721Enumerable, Ownable {\n\n    using SafeMath for uint256;\n\n    uint256 public maxSupply = 3000;\n    uint256 private _price = 0.05 ether;\n    uint256 private _reserved = 200;\n\n    string public PROVENANCE = \"\";\n\n    bool private _saleIsActive = false;\n    string public baseURI;\n\n    // TODO: set payout address\n    // TODO: set constant\n    address payoutAddress;\n\n    constructor() ERC721(\"The Faces Fund\", \"TFF\") {\n        _saleIsActive = false;\n    }\n\n    modifier whenSaleStarted() {\n        require(_saleIsActive, \"Sale has not been started.\");\n        _;\n    }\n\n    function mint(uint256 _nbTokens) external payable whenSaleStarted {\n        uint256 supply = totalSupply();\n        require(_nbTokens < 21, \"You cannot mint more than 20 Tokens at once!\");\n        require(supply + _nbTokens <= maxSupply - _reserved, \"Not enough Tokens remain for transaction to complete.\");\n        require(_nbTokens * _price <= msg.value, \"Insufficient amount sent!\");\n\n        for (uint256 i; i < _nbTokens; i++) {\n            _safeMint(msg.sender, supply + i);\n        }\n    }\n\n    function flipSaleState() external onlyOwner {\n        _saleIsActive = !_saleIsActive;\n    }\n\n    function saleIsStarted() public view returns(bool) {\n        return _saleIsActive;\n    }\n\n    function setBaseURI(string memory _URI) external onlyOwner {\n        baseURI = _URI;\n    }\n\n    function _baseURI() internal view override(ERC721) returns(string memory) {\n        return baseURI;\n    }\n\n    /* \n    Make it possible to change the maximum supply and reserved: for unit testing purposes only and is thus internal.\n    */\n    function setMaxSupplyAndReserved(uint256 _newMaxSupply, uint256 _newReserved) internal onlyOwner {\n        require(_newMaxSupply >= _newReserved, \"The max supply of tokens must exceed the number of reserved tokens.\");\n        maxSupply = _newMaxSupply;\n        _reserved = _newReserved;\n    }\n\n    // Make it possible to change the price: just in case\n    function setPrice(uint256 _newPrice) external onlyOwner {\n        _price = _newPrice;\n    }\n\n    function getPrice() public view returns (uint256){\n        return _price;\n    }\n\n    function getReservedLeft() public view returns (uint256) {\n        return _reserved;\n    }\n\n    // This should be set before sales open.\n    function setProvenanceHash(string memory provenanceHash) public onlyOwner {\n        PROVENANCE = provenanceHash;\n    }\n\n    // Helper to list all the tokens in a wallet\n    function walletOfOwner(address _owner) public view returns(uint256[] memory) {\n        uint256 tokenCount = balanceOf(_owner);\n\n        uint256[] memory tokensId = new uint256[](tokenCount);\n        for(uint256 i; i < tokenCount; i++){\n            tokensId[i] = tokenOfOwnerByIndex(_owner, i);\n        }\n        return tokensId;\n    }\n\n    function claimReserved(uint256 _number, address _receiver) external onlyOwner {\n        require(_number <= _reserved, \"That would exceed the max reserved.\");\n\n        uint256 _tokenId = totalSupply();\n        for (uint256 i; i < _number; i++) {\n            _safeMint(_receiver, _tokenId + i);\n        }\n\n        _reserved = _reserved - _number;\n    }\n\n    function withdraw() public onlyOwner {\n        uint256 _balance = address(this).balance;\n\n        require(payable(payoutAddress).send(_balance));\n    }\n\n    // Necessary for compilation.\n    function _beforeTokenTransfer(address from, address to, uint256 tokenId)\n        internal\n        override(ERC721, ERC721Enumerable)\n    {\n        super._beforeTokenTransfer(from, to, tokenId);\n    }\n\n    // Necessary for compilation.\n    function supportsInterface(bytes4 interfaceId)\n        public\n        view\n        override(ERC721, ERC721Enumerable)\n        returns (bool)\n    {\n        return super.supportsInterface(interfaceId);\n    }\n}",
  "sourcePath": "/Users/andrewzhou/Documents/EthDev/faces-fund/sol/contracts/TheFacesFund.sol",
  "compiler": {
    "name": "solc",
    "version": "0.8.7+commit.e28d00a7.Emscripten.clang"
  },
  "schemaVersion": "3.4.2",
  "updatedAt": "2021-08-28T05:51:51.363Z",
  "networkType": "ethereum",
  "devdoc": {
    "kind": "dev",
    "methods": {
      "approve(address,uint256)": {
        "details": "See {IERC721-approve}."
      },
      "balanceOf(address)": {
        "details": "See {IERC721-balanceOf}."
      },
      "getApproved(uint256)": {
        "details": "See {IERC721-getApproved}."
      },
      "isApprovedForAll(address,address)": {
        "details": "See {IERC721-isApprovedForAll}."
      },
      "name()": {
        "details": "See {IERC721Metadata-name}."
      },
      "owner()": {
        "details": "Returns the address of the current owner."
      },
      "ownerOf(uint256)": {
        "details": "See {IERC721-ownerOf}."
      },
      "renounceOwnership()": {
        "details": "Leaves the contract without owner. It will not be possible to call `onlyOwner` functions anymore. Can only be called by the current owner. NOTE: Renouncing ownership will leave the contract without an owner, thereby removing any functionality that is only available to the owner."
      },
      "safeTransferFrom(address,address,uint256)": {
        "details": "See {IERC721-safeTransferFrom}."
      },
      "safeTransferFrom(address,address,uint256,bytes)": {
        "details": "See {IERC721-safeTransferFrom}."
      },
      "setApprovalForAll(address,bool)": {
        "details": "See {IERC721-setApprovalForAll}."
      },
      "symbol()": {
        "details": "See {IERC721Metadata-symbol}."
      },
      "tokenByIndex(uint256)": {
        "details": "See {IERC721Enumerable-tokenByIndex}."
      },
      "tokenOfOwnerByIndex(address,uint256)": {
        "details": "See {IERC721Enumerable-tokenOfOwnerByIndex}."
      },
      "tokenURI(uint256)": {
        "details": "See {IERC721Metadata-tokenURI}."
      },
      "totalSupply()": {
        "details": "See {IERC721Enumerable-totalSupply}."
      },
      "transferFrom(address,address,uint256)": {
        "details": "See {IERC721-transferFrom}."
      },
      "transferOwnership(address)": {
        "details": "Transfers ownership of the contract to a new account (`newOwner`). Can only be called by the current owner."
      }
    },
    "version": 1
  },
  "userdoc": {
    "kind": "user",
    "methods": {},
    "version": 1
  }
}